:020000040800F2
:1000000000800120110D0008610D0008610D00083D
:10001000610D0008610D0008610D0008000000007E
:10002000000000000000000000000000610D00085A
:10003000610D000800000000610D0008490C000877
:1000400000000000610D0008610D0008610D00084E
:10005000610D0008610D0008E5090008FD090008B0
:10006000610D0008610D0008610D0008000000002E
:100070000000000000000000000000000000000080
:100080000000000000000000610D000800000000FA
:10009000000000000000000000000000610D0008EA
:1000A000610D0008610D0008610D0008610D000878
:1000B000610D0008610D0008610D0008610D000868
:1000C000610D0008610D0008610D0008610D000858
:1000D000610D0008610D0008610D000800000000BE
:1000E000610D0008610D0008610D000800000000AE
:1000F0000000000000000000000000000000000000
:1001000000000000610D0008610D0008610D00088D
:1001100000000000000000000000000000000000DF
:1001200000000000000000000000000000000000CF
:1001300000000000000000000000000000000000BF
:10014000000000000000000000000000610D000839
:10015000000000000000000000000000610D000829
:10016000610D0008610D00080000000000000000A3
:10017000000000000000000000000000000000007F
:1001800000000000610D00080000000000000000F9
:04019000610D0008F5
:1001980010B5054C237833B9044B13B10448AFF3B9
:1001A80000800123237010BD000000200000000023
:1001B800AC0D000808B5034B1BB103490348AFF366
:1001C800008008BD0000000004000020AC0D0008FD
:1001D80070B54FF0FF0C4CF4E06C1CEA11541DBFD5
:1001E8001CEA135594EA0C0F95EA0C0F00F0DEF8A0
:1001F8002C4481EA030621EA4C5123EA4C5350EA85
:10020800013518BF52EA033541F4801143F48013D5
:1002180038D0A0FB02CE4FF00005E1FB02E506F066
:100228000042E0FB03E54FF00006E1FB03569CF0BB
:10023800000F18BF4EF0010EA4F1FF04B6F5007FC1
:1002480064F5407404D25FEA4E0E6D4146EB060633
:1002580042EAC62141EA55514FEAC52040EA5E50BC
:100268004FEACE2EB4F1FD0C88BFBCF5E06F1ED866
:10027800BEF1004F08BF5FEA500E50F1000041EB9D
:10028800045170BD06F0004646EA010140EA02004A
:1002980081EA0301B4EB5C04C2BFD4EB0C0541EA6C
:1002A800045170BD41F480114FF0000E013C00F381
:1002B800AB8014F1360FDEBF002001F0004170BDA5
:1002C800C4F10004203C35DA0C341BDC04F11404BE
:1002D800C4F1200500FA05F320FA04F001FA05F24A
:1002E80040EA020001F0004221F0004110EBD37017
:1002F80021FA04F642EB06015EEA430E08BF20EA43
:10030800D37070BDC4F10C04C4F1200500FA04F3E5
:1003180020FA05F001FA04F240EA020001F0004177
:1003280010EBD37041F100015EEA430E08BF20EAEA
:10033800D37070BDC4F1200500FA05F24EEA020E32
:1003480020FA04F301FA05F243EA020321FA04F061
:1003580001F0004121FA04F220EA020000EBD37018
:100368005EEA430E08BF20EAD37070BD94F0000F18
:100378000FD101F00046400041EB010111F4801F4C
:1003880008BF013CF7D041EA060195F0000F18BFFD
:10039800704703F00046520043EB030313F4801F39
:1003A80008BF013DF7D043EA0603704794EA0C0FF3
:1003B8000CEA135518BF95EA0C0F0CD050EA410609
:1003C80018BF52EA4306D1D181EA030101F0004186
:1003D8004FF0000070BD50EA410606BF10461946AE
:1003E80052EA430619D094EA0C0F02D150EA0136BA
:1003F80013D195EA0C0F05D152EA03361CBF1046FB
:1004080019460AD181EA030101F0004141F0FE4199
:1004180041F470014FF0000070BD41F0FE4141F41D
:10042800780170BD4FF0FF3C06E000BF4FF0010CB3
:1004380002E000BF4FF0010C4DF804CD4FEA410C2B
:100448007FEA6C5C4FEA430C18BF7FEA6C5C1BD0F8
:1004580001B050EA410C0CBF52EA430C91EA030F79
:1004680002BF90EA020F0020704710F1000F91EAD6
:10047800030F58BF994208BF90422CBFD8176FEAA4
:10048800E37040F0010070474FEA410C7FEA6C5C72
:1004980002D150EA013C07D14FEA430C7FEA6C5C79
:1004A800D6D152EA033CD3D05DF8040B704700BFA5
:1004B8008446104662468C461946634600E000BFF3
:1004C80001B5FFF7B7FF002848BF10F1000F01BDC5
:1004D8004DF808EDFFF7F4FF0CBF012000205DF890
:1004E80008FB00BF4DF808EDFFF7EAFF34BF012015
:1004F80000205DF808FB00BF4DF808EDFFF7E0FFAE
:1005080094BF012000205DF808FB00BF4DF808EDFE
:10051800FFF7CEFF94BF012000205DF808FB00BF65
:100528004DF808EDFFF7C4FF34BF012000205DF847
:1005380008FB00BF4FEA410212F5001215D211D58F
:100548006FF47873B3EB625212D94FEAC12343F0C8
:10055800004343EA505311F0004F23FA02F018BF4A
:10056800404270474FF00000704750EA013005D113
:1005780011F0004008BF6FF0004070474FF00000D6
:10058800704700BF82B00022ADF8042040F66B41EE
:10059800ADF80620ADF80420BDF804309BB28342C4
:1005A80001D302B07047ADF80620BDF806309BB203
:1005B8008B4206D9BDF8043001339BB2ADF8043044
:1005C800EAE7BDF8063001339BB2ADF80630ECE738
:1005D800002210B50A210446104600F093FA0022C2
:1005E8001046092100F08EFA002104F001020846A5
:1005F80000F088FAC4F340020121002000F082FADA
:10060800C4F380020221002000F07CFAC4F3C00287
:100618000321002000F076FAC4F300120421002020
:1006280000F070FAC4F340120521002000F06AFAC5
:10063800C4F380120621002000F064FAE2090721C1
:10064800002000F05FFA01220821002000F05AFA89
:100658000520FFF797FF00221046082100F052FA04
:10066800BDE810400220FFF78DBF002108B50846FD
:1006780000F0A8FA01220A21002000F0C7F901229F
:100688000921002000F0C2F901220821002000F011
:10069800BDF9002210460A2100F008FA002210468F
:1006A800092100F003FA00221046082100F0FEF9A3
:1006B800002210460A2100F0D5F90022104609212F
:1006C80000F0D0F900221046082100F0CBF90021F3
:1006D8000846012200F09AF901221146002000F094
:1006E80095F901220221002000F090F9012203214E
:1006F800002000F08BF900221146104600F0D6F9D0
:1007080000221046012100F0D1F9002210460221F2
:1007180000F0CCF900221046032100F0C7F90022AE
:100728001146104600F09EF900221046012100F003
:1007380099F900221046022100F094F9002210468F
:10074800032100F08FF901220421002000F05EF956
:1007580001220521002000F059F90122062100207C
:1007680000F054F901220721002000F04FF900227F
:100778001046042100F09AF900221046052100F0E5
:1007880095F900221046062100F090F90022104643
:10079800072100F08BF900221046042100F062F9CD
:1007A80000221046052100F05DF9002210460621BE
:1007B80000F058F900221046072100F053F93220C2
:1007C800FFF7E0FE3820FFF703FF0520FFF7DAFE0A
:1007D8000C20FFF7FDFE0120FFF7D4FE0120FFF7F4
:1007E800F7FE0120FFF7CEFE0220FFF7F1FE012001
:1007F800FFF7C8FE0620FFF7EBFEBDE80840012022
:10080800FFF7C0BE82B0064B019300F108030DEB61
:10081800030010F8040C0844C0B202B0FFF7D8BEB9
:1008280080C090D010B5012204460A21002000F0B3
:1008380069F900221046092100F064F9002104F04A
:100848000102084600F05EF9C4F3400201210020CD
:1008580000F058F9C4F380020221002000F052F998
:10086800C4F3C0020321002000F04CF9C4F30012C5
:100878000421002000F046F9C4F3401205210020AD
:1008880000F040F9C4F380120621002000F03AF984
:10089800E2090721002000F035F901220821002093
:1008A80000F030F90520FFF76DFE00221046082100
:1008B80000F028F9BDE810400220FFF763BE38B504
:1008C80005460024E3B20134E85C00B938BDFFF7FF
:1008D800A9FFF7E72DE9F04359EC108B85B0002309
:1008E80010EE100A4946CDE90133ADF80C30FFF798
:1008F80021FE6425384B00220446454349464046BC
:10090800FFF766FCFFF716FE002206460023404666
:100918004946FFF7E7FD18B32D20FFF783FF644230
:1009280076426D42B54245DA2DB93020FFF77AFF9D
:100938002E20FFF777FF00220A2153B20132DEB9D9
:100948006422012695FBF2F50A22FDB901245D1EF9
:100958006DB201AF9E1B2B062FD505B0BDE8F08305
:100968000022002340464946FFF7B2FD0028D9D0AF
:100978003020FFF757FFD5E710336B4496FBF1F4AF
:1009880001FB146603F80C6C2646D6E70136F6B26E
:1009980095FBF2F5D9E710336B4494FBF1F501FBB5
:1009A800154403F80C4C2C4653B20132002CF2D1FA
:1009B8000126CCE700220A21F6E7E85D3030C0B214
:1009C800013DFFF72FFF6BB29E42C4D1002CC2D06D
:1009D8002E20FFF727FFBEE700005940034A53695E
:1009E80043F001035361024B1B681847003C014068
:1009F8001C000020034A536943F001035361024B72
:100A08001B681847003C01402000002010B505284D
:100A18000AD8DFE800F0030A0C0E10120B4804682D
:100A28004B009A402243026010BD0948F7E7094885
:100A3800F5E70948F3E70948F1E709484B00046876
:100A480002FA03F121430160EEE700BF0000024013
:100A58000004024000080240000C0240001002405E
:100A6800001C0240052809D8DFE800F003090B0D37
:100A78000F11084B58688A4002435A607047064B6A
:100A8800F8E7064BF6E7064BF4E7064BF2E7064BAA
:100A9800F0E700BF000002400004024000080240E6
:100AA800000C024000100240001C024010B505284E
:100AB8000AD8DFE800F0030A0C0E10120B4884680D
:100AC8004B009A402243826010BD0948F7E7094865
:100AD800F5E70948F3E70948F1E709484B00846856
:100AE80002FA03F121438160EEE700BF00000240F3
:100AF8000004024000080240000C024000100240BE
:100B0800001C024012B1012A1AD07047052825D8C6
:100B1800DFE800F0030C0E10121416484369012296
:100B280002FA01F123EA0101416170471248F5E731
:100B38001248F3E71248F1E71248EFE71248EDE7E9
:100B480005280BD8DFE800F0030B0D0F1113094A35
:100B58005069012303FA01F1014351617047064AC4
:100B6800F6E7064AF4E7064AF2E7064AF0E7064AD5
:100B7800EEE700BF00000240000402400008024007
:100B8800000C024000100240001C02400C4B1A6886
:100B980022F001021A601A6822F480321A601A6878
:100BA80022F080721A609A6822F001029A609A68AC
:100BB80022F002029A601A6842F001021A60704735
:100BC80000380240032822D8DFE800F0020A121A8F
:100BD8000F4A0123106B03FA01F1014311637047B7
:100BE8000B4A0123506B03FA01F10143516370472B
:100BF800074A0123106C03FA01F10143116470479D
:100C0800034A0123506C03FA01F101435164704710
:100C1800003802404FF0E02300229A6110B1012809
:100C280007D0704704221A61044B4FF47A521A60B5
:100C380070471A61014B4FF4FA62F8E72800002068
:100C480010B5194B1A78022A1AD01B7803F0FF0145
:100C58005BB94FF0E0231A6922F001021A61596169
:100C680099611A6922F002021A61104B1B689847B1
:100C78004FF0E0230E4A1B69C3F30043137010BD05
:100C88000C4C0D4A23681268013393422360ECD060
:100C98000A4909680A449342EAD1044B1B689847F9
:100CA80000232360E4E700BF2C0000203800002068
:100CB800240000203C0000203400002030000020E8
:100CC80008B5FFF763FF0120FFF7A4FF00210846DE
:100CD800FFF778FFFFF7C9FC0948FFF7F0FD00218F
:100CE8000120FFF78FFD0748FFF7E9FD9FED020B95
:100CF800FFF7F0FDFEE700BF000000000000000065
:100D0800C40D0008CC0D00080D488546AFF30080DF
:100D18000C480D490D4A002302E0D458C45004334E
:100D2800C4188C42F9D30A4A0A4C002301E0136024
:100D38000432A242FBD300F011F8FFF7C1FFFEE72F
:100D4800008001200000002000000020DC0D0008C9
:100D58000000002040000020FEE7000070B50D4DA7
:100D68000D4C641BA4100026A64209D10B4D0C4C57
:100D780000F018F8641BA4100026A64205D170BD27
:100D880055F8043B98470136EEE755F8043B984779
:100D98000136F2E7D40D0008D40D0008D40D000880
:100DA800D80D0008F8B500BFF8BC08BC9E467047CF
:0C0DB800F8B500BFF8BC08BC9E467047B0
:100DC4004D6F68616D6564004E756D3D20000000D7
:040DD400BD01000855
:040DD8009901000875
:0400000508000D11D1
:00000001FF
