:020000040800F2
:1000000000800120A9080008F9080008F908000884
:10001000F9080008F9080008F908000800000000C5
:10002000000000000000000000000000F9080008C7
:10003000F908000800000000F9080008CD070008D2
:1000400000000000F9080008F9080008F908000895
:10005000F9080008F908000869050008810500088A
:10006000F9080008F9080008F90800080000000075
:100070000000000000000000000000000000000080
:100080000000000000000000F90800080000000067
:10009000000000000000000000000000F908000857
:1000A000F9080008F9080008F9080008F90800082C
:1000B000F9080008F9080008F9080008F90800081C
:1000C000F9080008F9080008F9080008F90800080C
:1000D000F9080008F9080008F90800080000000005
:1000E000F9080008F9080008F908000800000000F5
:1000F0000000000000000000000000000000000000
:1001000000000000F9080008F9080008F9080008D4
:1001100000000000000000000000000000000000DF
:1001200000000000000000000000000000000000CF
:1001300000000000000000000000000000000000BF
:10014000000000000000000000000000F9080008A6
:10015000000000000000000000000000F908000896
:10016000F9080008F908000800000000000000007D
:10017000000000000000000000000000000000007F
:1001800000000000F9080008000000000000000066
:04019000F908000862
:1001940010B5054C237833B9044B13B10448AFF3BD
:1001A40000800123237010BD3800002000000000EF
:1001B4004409000808B5034B1BB103490348AFF3D6
:1001C400008008BD000000003C0000204409000835
:1001D40082B00022ADF8042040F66B41ADF8062051
:1001E400ADF80420BDF804309BB2834201D302B0C1
:1001F4007047ADF80620BDF806309BB28B4206D995
:10020400BDF8043001339BB2ADF80430EAE7BDF821
:10021400063001339BB2ADF80630ECE7002210B58E
:100224000A210446104600F031FA00221046092142
:1002340000F02CFA002104F00102084600F026FA2E
:10024400C4F340020121002000F020FAC4F380022C
:100254000221002000F01AFAC4F3C0020321002096
:1002640000F014FAC4F300120421002000F00EFA86
:10027400C4F340120521002000F008FAC4F38012F0
:100284000621002000F002FAE2090721002000F014
:10029400FDF901220821002000F0F8F90520FFF7FC
:1002A40097FF00221046082100F0F0F9BDE8104045
:1002B4000220FFF78DBF002108B5084600F046FA7A
:1002C40001220A21002000F065F901220921002001
:1002D40000F060F901220821002000F05BF90022FF
:1002E40010460A2100F0A6F900221046092100F068
:1002F400A1F900221046082100F09CF900221046C2
:100304000A2100F073F900221046092100F06EF969
:1003140000221046082100F069F900210846012254
:1003240000F038F901221146002000F033F90122CF
:100334000221002000F02EF901220321002000F008
:1003440029F900221146104600F074F900221046E3
:10035400012100F06FF900221046022100F06AF931
:1003640000221046032100F065F9002211461046D0
:1003740000F03CF900221046012100F037F9002278
:100384001046022100F032F900221046032100F049
:100394002DF901220421002000F0FCF8012205219E
:1003A400002000F0F7F801220621002000F0F2F806
:1003B40001220721002000F0EDF80022104604215C
:1003C40000F038F900221046052100F033F900222C
:1003D4001046062100F02EF900221046072100F0F5
:1003E40029F900221046042100F000F900221046E9
:1003F400052100F0FBF800221046062100F0F6F873
:1004040000221046072100F0F1F83220FFF7E0FE49
:100414003820FFF703FF0520FFF7DAFE0C20FFF773
:10042400FDFE0120FFF7D4FE0120FFF7F7FE0120B7
:10043400FFF7CEFE0220FFF7F1FE0120FFF7C8FE12
:100444000620FFF7EBFEBDE808400120FFF7C0BE21
:1004540082B0064B019300F108030DEB030010F882
:10046400040C0844C0B202B0FFF7D8BE80C090D0DC
:1004740010B5012204460A21002000F007F90022E9
:100484001046092100F002F9002104F00102084697
:1004940000F0FCF8C4F340020121002000F0F6F85B
:1004A400C4F380020221002000F0F0F8C4F3C0027B
:1004B4000321002000F0EAF8C4F300120421002014
:1004C40000F0E4F8C4F340120521002000F0DEF847
:1004D400C4F380120621002000F0D8F8E2090721B5
:1004E400002000F0D3F801220821002000F0CEF80B
:1004F4000520FFF76DFE00221046082100F0C6F823
:10050400BDE810400220FFF763BE0000072838B59D
:1005140018D80139C9B2062900F1080098BF0A4B5E
:100524004FEAC00000F0F80094BF53F821400024C3
:10053400FFF774FE651E073415F8010FFFF798FFE7
:10054400A542F9D138BD00BF5C09000838B505469D
:100554000024E3B20134E85C00B938BDFFF788FF3A
:10056400F7E70000034A536943F001035361024B68
:100574001B681847003C014054000020034A53699B
:1005840043F001035361024B1B681847003C0140D0
:100594005800002010B505280AD8DFE800F0030A47
:1005A4000C0E10120B4804684B009A402243026060
:1005B40010BD0948F7E70948F5E70948F3E7094892
:1005C400F1E709484B00046802FA03F12143016092
:1005D400EEE700BF000002400004024000080240B1
:1005E400000C024000100240001C0240052809D8FB
:1005F400DFE800F003090B0D0F11084B58688A401F
:1006040002435A607047064BF8E7064BF6E7064B81
:10061400F4E7064BF2E7064BF0E700BF00000240A8
:100624000004024000080240000C02400010024096
:10063400001C024010B505280AD8DFE800F0030AC0
:100644000C0E10120B4884684B009A4022438260BF
:1006540010BD0948F7E70948F5E70948F3E70948F1
:10066400F1E709484B00846802FA03F121438160F1
:10067400EEE700BF00000240000402400008024010
:10068400000C024000100240001C024012B1012A7A
:100694001AD07047052825D8DFE800F0030C0E10A7
:1006A400121416484369012202FA01F123EA0101F6
:1006B400416170471248F5E71248F3E71248F1E741
:1006C4001248EFE71248EDE705280BD8DFE800F001
:1006D400030B0D0F1113094A5069012303FA01F1A9
:1006E400014351617047064AF6E7064AF4E7064AB1
:1006F400F2E7064AF0E7064AEEE700BF00000240D0
:100704000004024000080240000C024000100240B5
:10071400001C02400C4B1A6822F001021A601A688D
:1007240022F480321A601A6822F080721A609A6881
:1007340022F001029A609A6822F002029A601A6812
:1007440042F001021A60704700380240032822D8A0
:10075400DFE800F0020A121A0F4A0123106B03FAB1
:1007640001F10143116370470B4A0123506B03FAF3
:1007740001F1014351637047074A0123106C03FAE6
:1007840001F1014311647047034A0123506C03FAD9
:1007940001F1014351647047003802404FF0E023F7
:1007A40000229A6110B1012807D0704704221A610F
:1007B400044B4FF47A521A6070471A61014B4FF49C
:1007C400FA62F8E76000002010B5194B1A78022A83
:1007D4001AD01B7803F0FF015BB94FF0E0231A69CC
:1007E40022F001021A61596199611A6922F0020228
:1007F4001A61104B1B6898474FF0E0230E4A1B699F
:10080400C3F30043137010BD0C4C0D4A23681268E7
:10081400013393422360ECD00A4909680A449342A5
:10082400EAD1044B1B68984700232360E4E700BF28
:1008340064000020700000205C0000207400002090
:100844006C0000206800002008B5FFF763FF01205A
:10085400FFF7A4FF00210846FFF778FFFFF72BFD01
:1008640001210020FFF752FE07210120FFF74EFE71
:1008740000210846FFF7ECFD0948FFF767FE002159
:100884000120FFF7E5FD2020FFF7F2FD3D20FFF7F3
:10089400EFFD0020FFF7ECFD0120FFF7E9FDFEE787
:1008A400780900080D488546AFF300800C480D49CF
:1008B4000D4A002302E0D458C4500433C4188C42B7
:1008C400F9D30A4A0A4C002301E013600432A2421D
:1008D400FBD300F011F8FFF7B7FFFEE7008001201B
:1008E400000000203800002088090008380000209B
:1008F40078000020FEE7000070B50D4D0D4C641B20
:10090400A4100026A64209D10B4D0C4C00F018F897
:10091400641BA4100026A64205D170BD55F8043B03
:1009240098470136EEE755F8043B98470136F2E75D
:10093400800900088009000880090008840900086B
:10094400F8B500BFF8BC08BC9E467047F8B500BFB8
:08095400F8BC08BC9E46704788
:10095C0000000020080000201000002018000020DB
:10096C002000002028000020300000204D6F68611E
:04097C006D65640041
:04098000B9010008B1
:0409840095010008D1
:10098800000A15110A040000041F11111F1F1F1F60
:10099800040E0E0E1F0004000103071F1F070301AA
:1009A80001030509090B1B180A0A1F11110E04047B
:0809B80000000A0004110E000A
:04000005080008A93E
:00000001FF
