:020000040800F2
:100000000080012051030008A1030008A10300089B
:10001000A1030008A1030008A103000800000000DC
:10002000000000000000000000000000A103000824
:10003000A103000800000000A1030008B9020008A5
:1000400000000000A1030008A1030008A1030008AC
:10005000A1030008A1030008D5010008ED01000874
:10006000A1030008A1030008A1030008000000008C
:100070000000000000000000000000000000000080
:100080000000000000000000A103000800000000C4
:10009000000000000000000000000000A1030008B4
:1000A000A1030008A1030008A1030008A1030008A0
:1000B000A1030008A1030008A1030008A103000890
:1000C000A1030008A1030008A1030008A103000880
:1000D000A1030008A1030008A1030008000000001C
:1000E000A1030008A1030008A1030008000000000C
:1000F0000000000000000000000000000000000000
:1001000000000000A1030008A1030008A1030008EB
:1001100000000000000000000000000000000000DF
:1001200000000000000000000000000000000000CF
:1001300000000000000000000000000000000000BF
:10014000000000000000000000000000A103000803
:10015000000000000000000000000000A1030008F3
:10016000A1030008A1030008000000000000000037
:10017000000000000000000000000000000000007F
:1001800000000000A10300080000000000000000C3
:04019000A1030008BF
:1001940010B5054C237833B9044B13B10448AFF3BD
:1001A40000800123237010BD000000200000000027
:1001B400EC03000808B5034B1BB103490348AFF334
:1001C400008008BD0000000004000020EC030008CB
:1001D400034A536943F001035361024B1B681847F8
:1001E400003C01401C000020034A536943F0010312
:1001F4005361024B1B681847003C0140200000205B
:100204000C4B1A6822F001021A601A6822F4803238
:100214001A601A6822F080721A609A6822F0010249
:100224009A609A6822F002029A601A6842F0010207
:100234001A60704700380240032822D8DFE800F033
:10024400020A121A0F4A0123106B03FA01F1014347
:10025400116370470B4A0123506B03FA01F1014308
:1002640051637047074A0123106C03FA01F10143FB
:1002740011647047034A0123506C03FA01F10143EE
:1002840051647047003802404FF0E02300229A6125
:1002940010B1012807D0704704221A61044B4FF4AF
:1002A4007A521A6070471A61014B4FF4FA62F8E708
:1002B4002800002010B5194B1A78022A1AD01B788E
:1002C40003F0FF015BB94FF0E0231A6922F0010249
:1002D4001A61596199611A6922F002021A61104B7C
:1002E4001B6898474FF0E0230E4A1B69C3F3004391
:1002F400137010BD0C4C0D4A2368126801339342ED
:100304002360ECD00A4909680A449342EAD1044BB9
:100314001B68984700232360E4E700BF2C000020FB
:1003240038000020240000203C000020340000207D
:100334003000002008B5FFF763FF0120FFF7A4FF9A
:1003440000210846FFF778FFFEE700000D488546C8
:10035400AFF300800C480D490D4A002302E0D45845
:10036400C4500433C4188C42F9D30A4A0A4C0023FB
:1003740001E013600432A242FBD300F011F8FFF74E
:10038400D9FFFEE7008001200000002000000020CB
:100394000C0400080000002040000020FEE70000DC
:1003A40070B50D4D0D4C641BA4100026A64209D156
:1003B4000B4D0C4C00F018F8641BA4100026A64248
:1003C40005D170BD55F8043B98470136EEE755F862
:1003D400043B98470136F2E70404000804040008CB
:1003E4000404000808040008F8B500BFF8BC08BC01
:1003F4009E467047F8B500BFF8BC08BC9E467047DF
:04040400B901000832
:040408009501000852
:04000005080003519B
:00000001FF
