:020000040800F2
:1000000000800120310300088103000881030008FB
:10001000810300088103000881030008000000003C
:100020000000000000000000000000008103000844
:10003000810300080000000081030008810300081C
:10004000000000008103000881030008810300080C
:100050008103000881030008810300088103000870
:1000600081030008810300088103000800000000EC
:100070000000000000000000000000000000000080
:1000800000000000000000008103000800000000E4
:1000900000000000000000000000000081030008D4
:1000A0008103000881030008810300088103000820
:1000B0008103000881030008810300088103000810
:1000C0008103000881030008810300088103000800
:1000D000810300088103000881030008000000007C
:1000E000810300088103000881030008000000006C
:1000F0000000000000000000000000000000000000
:10010000000000008103000881030008810300084B
:1001100000000000000000000000000000000000DF
:1001200000000000000000000000000000000000CF
:1001300000000000000000000000000000000000BF
:100140000000000000000000000000008103000823
:100150000000000000000000000000008103000813
:100160008103000881030008000000000000000077
:10017000000000000000000000000000000000007F
:1001800000000000810300080000000000000000E3
:0401900081030008DF
:1001940010B5054C237833B9044B13B10448AFF3BD
:1001A40000800123237010BD000000200000000027
:1001B400CC03000808B5034B1BB103490348AFF354
:1001C400008008BD0000000004000020CC030008EB
:1001D400034A0123116803FA00F0084310607047D2
:1001E400003C014001290CD0022914D091B90D4BD7
:1001F4000121DA6881400A43DA60986820EA010143
:1002040007E0084BDA68814022EA0102DA60986864
:10021400014399607047034B0121DA68814022EA67
:100224000102E9E7003C014001F0FC0303F18043D3
:1002340003F59C3301F003019A6810B589000F247B
:100244008C4022EA04029A609A68884022EA0002FA
:100254009A6010BD00F16040044B054ADA60090160
:1002640000F56140C9B280F80013704700ED00E06A
:100274000003FA050C4B1A6822F001021A601A688E
:1002840022F480321A601A6822F080721A609A6826
:1002940022F001029A609A6822F002029A601A68B7
:1002A40042F001021A60704700380240032822D845
:1002B400DFE800F0020A121A0F4A0123106B03FA56
:1002C40001F10143116370470B4A0123506B03FA98
:1002D40001F1014351637047074A0123106C03FA8B
:1002E40001F1014311647047034A0123506C03FA7E
:1002F40001F10143516470470038024008B5FFF72B
:10030400B9FF0E210320FFF7D1FF00210846FFF7B4
:100314008BFF0020FFF75CFF01210020FFF762FF45
:10032400002201210620FFF795FFFEE70D488546D0
:10033400AFF300800C480D490D4A002302E0D45865
:10034400C4500433C4188C42F9D30A4A0A4C00231B
:1003540001E013600432A242FBD300F011F8FFF76E
:10036400CDFFFEE7008001200000002000000020F7
:10037400EC030008000000201C000020FEE7000041
:1003840070B50D4D0D4C641BA4100026A64209D176
:100394000B4D0C4C00F018F8641BA4100026A64268
:1003A40005D170BD55F8043B98470136EEE755F882
:1003B400043B98470136F2E7E4030008E40300082D
:1003C400E4030008E8030008F8B500BFF8BC08BC63
:1003D4009E467047F8B500BFF8BC08BC9E467047FF
:0403E400B901000853
:0403E8009501000873
:0400000508000331BB
:00000001FF
