:020000040800F2
:1000000000800120D1040008210500082105000816
:100010002105000821050008210500080000000056
:1000200000000000000000000000000021050008A2
:100030002105000800000000210500082105000836
:100040000000000021050008210500082105000826
:1000500021050008210500082105000821050008E8
:100060002105000821050008210500080000000006
:100070000000000000000000000000000000000080
:100080000000000000000000210500080000000042
:100090000000000000000000000000002105000832
:1000A0002105000821050008210500082105000898
:1000B0002105000821050008210500082105000888
:1000C0002105000821050008210500082105000878
:1000D0002105000821050008210500080000000096
:1000E0002105000821050008210500080000000086
:1000F0000000000000000000000000000000000000
:100100000000000021050008210500082105000865
:1001100000000000000000000000000000000000DF
:1001200000000000000000000000000000000000CF
:1001300000000000000000000000000000000000BF
:100140000000000000000000000000002105000881
:100150000000000000000000000000002105000871
:100160002105000821050008000000000000000033
:10017000000000000000000000000000000000007F
:100180000000000021050008000000000000000041
:04019000210500083D
:1001940010B5054C237833B9044B13B10448AFF3BD
:1001A40000800123237010BD000000200000000027
:1001B4006C05000808B5034B1BB103490348AFF3B2
:1001C400008008BD00000000040000206C05000849
:1001D40082B00022ADF8042040F66B41ADF8062051
:1001E400ADF80420BDF804309BB2834201D302B0C1
:1001F4007047ADF80620BDF806309BB28B4206D995
:10020400BDF8043001339BB2ADF80430EAE7BDF821
:10021400063001339BB2ADF80630ECE710B5052883
:100224000AD8DFE800F0030A0C0E10120B48046829
:100234004B009A402243026010BD0948F7E7094881
:10024400F5E70948F3E70948F1E709484B00046872
:1002540002FA03F121430160EEE700BF000002400F
:100264000004024000080240000C0240001002405A
:10027400001C0240052809D8DFE800F003090B0D33
:100284000F11084B58688A4002435A607047064B66
:10029400F8E7064BF6E7064BF4E7064BF2E7064BA6
:1002A400F0E700BF000002400004024000080240E2
:1002B400000C024000100240001C024010B505284A
:1002C4000AD8DFE800F0030A0C0E10120B48846809
:1002D4004B009A402243826010BD0948F7E7094861
:1002E400F5E70948F3E70948F1E709484B00846852
:1002F40002FA03F121438160EEE700BF00000240EF
:100304000004024000080240000C024000100240B9
:10031400001C0240052809D8DFE800F003090B0D92
:100324000F11084B58698A4002435A617047064BC3
:10033400F8E7064BF6E7064BF4E7064BF2E7064B05
:10034400F0E700BF00000240000402400008024041
:10035400000C024000100240001C02400C4B1A68C2
:1003640022F001021A601A6822F480321A601A68B4
:1003740022F080721A609A6822F001029A609A68E8
:1003840022F002029A601A6842F001021A60704771
:1003940000380240032822D8DFE800F0020A121ACB
:1003A4000F4A0123106B03FA01F1014311637047F3
:1003B4000B4A0123506B03FA01F101435163704767
:1003C400074A0123106C03FA01F1014311647047D9
:1003D400034A0123506C03FA01F10143516470474D
:1003E4000038024008B5FFF7B9FF00210846FFF7BF
:1003F400D1FF002108460122FFF710FF0022114619
:100404001046FFF737FF002211461046FFF756FF4C
:1004140000210846FFF7BEFF012211460020FFF726
:10042400FDFE002210460121FFF724FF00221046A2
:100434000121FFF743FF00210846FFF7ABFF01222C
:1004440002210020FFF7EAFE002210460221FFF7F6
:1004540011FF002202211046FFF730FF0021084659
:100464000122FFF757FF4FF47A70FFF7B1FE012224
:1004740011460020FFF74EFF4FF47A70FFF7A8FEF5
:10048400012202210020FFF745FF4FF47A70FFF7A5
:100494009FFE002211461046FFF73CFF4FF47A708E
:1004A400FFF796FE002210460121FFF733FF4FF4B9
:1004B4007A70FFF78DFE002210460221FFF72AFF13
:1004C4004FF47A70FFF784FEC8E700000D488546B4
:1004D400AFF300800C480D490D4A002302E0D458C4
:1004E400C4500433C4188C42F9D30A4A0A4C00237A
:1004F40001E013600432A242FBD300F011F8FFF7CD
:1005040071FFFEE7008001200000002000000020B1
:100514008C050008000000201C000020FEE70000FD
:1005240070B50D4D0D4C641BA4100026A64209D1D4
:100534000B4D0C4C00F018F8641BA4100026A642C6
:1005440005D170BD55F8043B98470136EEE755F8E0
:10055400043B98470136F2E7840500088405000847
:100564008405000888050008F8B500BFF8BC08BC7D
:100574009E467047F8B500BFF8BC08BC9E4670475D
:04058400B9010008B1
:0405880095010008D1
:04000005080004D11A
:00000001FF
