:020000040800F2
:100000000080012015020008650200086502000852
:100010006502000865020008650200080000000093
:100020000000000000000000000000006502000861
:100030006502000800000000650200086502000873
:100040000000000065020008650200086502000863
:1000500065020008650200086502000865020008E4
:100060006502000865020008650200080000000043
:100070000000000000000000000000000000000080
:100080000000000000000000650200080000000001
:1000900000000000000000000000000065020008F1
:1000A0006502000865020008650200086502000894
:1000B0006502000865020008650200086502000884
:1000C0006502000865020008650200086502000874
:1000D00065020008650200086502000800000000D3
:1000E00065020008650200086502000800000000C3
:1000F0000000000000000000000000000000000000
:1001000000000000650200086502000865020008A2
:1001100000000000000000000000000000000000DF
:1001200000000000000000000000000000000000CF
:1001300000000000000000000000000000000000BF
:100140000000000000000000000000006502000840
:100150000000000000000000000000006502000830
:1001600065020008650200080000000000000000B1
:10017000000000000000000000000000000000007F
:100180000000000065020008000000000000000000
:0401900065020008FC
:1001940010B5054C237833B9044B13B10448AFF3BD
:1001A40000800123237010BD000000200000000027
:1001B400B002000808B5034B1BB103490348AFF371
:1001C400008008BD0000000004000020B002000808
:1001D4000C4B1A6822F001021A601A6822F4803269
:1001E4001A601A6822F080721A609A6822F001027A
:1001F4009A609A6822F002029A601A6842F0010238
:100204001A6070470038024008B5FFF7E1FFFEE7C7
:100214000D488546AFF300800C480D490D4A002374
:1002240002E0D458C4500433C4188C42F9D30A4AA7
:100234000A4C002301E013600432A242FBD300F015
:1002440011F8FFF7E1FFFEE7008001200000002025
:1002540000000020D0020008000000201C00002044
:10026400FEE7000070B50D4D0D4C641BA410002674
:10027400A64209D10B4D0C4C00F018F8641BA410D5
:100284000026A64205D170BD55F8043B98470136B7
:10029400EEE755F8043B98470136F2E7C802000838
:1002A400C8020008C8020008CC020008F8B500BF64
:1002B400F8BC08BC9E467047F8B500BFF8BC08BC43
:0402C4009E4670479B
:0402C800B901000870
:0402CC009501000890
:0400000508000215D8
:00000001FF
