:020000040800F2
:1000000000800120CD0400081D0500081D05000822
:100010001D0500081D0500081D0500080000000062
:100020000000000000000000000000001D050008A6
:100030001D050008000000001D0500081D05000842
:10004000000000001D0500081D0500081D05000832
:100050001D0500081D0500081D0500081D050008F8
:100060001D0500081D0500081D0500080000000012
:100070000000000000000000000000000000000080
:1000800000000000000000001D0500080000000046
:100090000000000000000000000000001D05000836
:1000A0001D0500081D0500081D0500081D050008A8
:1000B0001D0500081D0500081D0500081D05000898
:1000C0001D0500081D0500081D0500081D05000888
:1000D0001D0500081D0500081D05000800000000A2
:1000E0001D0500081D0500081D0500080000000092
:1000F0000000000000000000000000000000000000
:10010000000000001D0500081D0500081D05000871
:1001100000000000000000000000000000000000DF
:1001200000000000000000000000000000000000CF
:1001300000000000000000000000000000000000BF
:100140000000000000000000000000001D05000885
:100150000000000000000000000000001D05000875
:100160001D0500081D05000800000000000000003B
:10017000000000000000000000000000000000007F
:10018000000000001D050008000000000000000045
:040190001D05000841
:1001940010B5054C237833B9044B13B10448AFF3BD
:1001A40000800123237010BD000000200000000027
:1001B4006805000808B5034B1BB103490348AFF3B6
:1001C400008008BD0000000004000020680500084D
:1001D40037B50021084600F049F90121002000F05C
:1001E40045F90221002000F041F90321002000F02C
:1001F4003DF90421002000F039F90721002000F026
:1002040035F94FF05531002000F080F84FF05531AA
:10021400012000F07BF84FF05531022000F076F811
:100224004FF05531032000F071F84FF055310420A0
:1002340000F06CF84FF05531052000F067F8002508
:10024400ECB200221046214600F080F8002210464D
:10025400214600F09FF800222146012000F076F8A4
:1002640000222146012000F095F8002221460220B8
:1002740000F06CF800222146022000F08BF80022E6
:100284002146032000F062F800222146032000F0FA
:1002940081F800222146042000F058F8002221466B
:1002A400042000F077F800222146052000F04EF8E3
:1002B400013500222146052000F06CF8102DBFD135
:1002C4000024E1B201220020019100F08FF8012204
:1002D4001046019900F08AF801990122022000F0E9
:1002E40085F801990122032000F080F80199012288
:1002F400042000F07BF8013401990122052000F06C
:1003040075F8102CDDD103B030BD0000052806D8E7
:10031400DFE800F00306080A0C0E064B196070476C
:10032400054BFBE7054BF9E7054BF7E7054BF5E70D
:10033400054BF3E7000002400004024000080240BD
:10034400000C024000100240001C0240052809D89D
:10035400DFE800F003090B0D0F11084B58688A40C1
:1003640002435A607047064BF8E7064BF6E7064B24
:10037400F4E7064BF2E7064BF0E700BF000002404B
:100384000004024000080240000C02400010024039
:10039400001C024010B505280AD8DFE800F0030A63
:1003A4000C0E10120B4884684B009A402243826062
:1003B40010BD0948F7E70948F5E70948F3E7094894
:1003C400F1E709484B00846802FA03F12143816094
:1003D400EEE700BF000002400004024000080240B3
:1003E400000C024000100240001C024005280AD8FC
:1003F400DFE800F0030A0C0E1012084B58698A401B
:1004040092B202435A617047054BF7E7054BF5E793
:10041400054BF3E7054BF1E7054BEFE7000002401E
:100424000004024000080240000C02400010024098
:10043400001C02400C4B1A6822F001021A601A6870
:1004440022F480321A601A6822F080721A609A6864
:1004540022F001029A609A6822F002029A601A68F5
:1004640042F001021A60704700380240032822D883
:10047400DFE800F0020A121A0F4A0123106B03FA94
:1004840001F10143116370470B4A0123506B03FAD6
:1004940001F1014351637047074A0123106C03FAC9
:1004A40001F1014311647047034A0123506C03FABC
:1004B40001F10143516470470038024008B5FFF769
:1004C400B9FFFFF785FEFEE70D488546AFF30080D0
:1004D4000C480D490D4A002302E0D458C45004339B
:1004E400C4188C42F9D30A4A0A4C002301E0136071
:1004F4000432A242FBD300F011F8FFF7DFFFFEE75E
:100504000080012000000020000000208805000871
:10051400000000201C000020FEE7000070B50D4D17
:100524000D4C641BA4100026A64209D10B4D0C4CA3
:1005340000F018F8641BA4100026A64205D170BD73
:1005440055F8043B98470136EEE755F8043B9847C5
:100554000136F2E7800500088005000880050008E0
:1005640084050008F8B500BFF8BC08BC9E46704777
:0C057400F8B500BFF8BC08BC9E467047FC
:04058000B9010008B5
:0405840095010008D5
:04000005080004CD1E
:00000001FF
