:020000040800F2
:100000000080012081080008D1080008D1080008FC
:10001000D1080008D1080008D1080008000000003D
:10002000000000000000000000000000D1080008EF
:10003000D108000800000000D1080008A10700084E
:1000400000000000D1080008D1080008D10800080D
:10005000D1080008D108000891030008A90300088E
:10006000D1080008D1080008D108000800000000ED
:100070000000000000000000000000000000000080
:100080000000000000000000D1080008000000008F
:10009000000000000000000000000000D10800087F
:1000A000D1080008D1080008D1080008D1080008CC
:1000B000D1080008D1080008D1080008D1080008BC
:1000C000D1080008D1080008D10800083907000845
:1000D000D1080008D1080008D1080008000000007D
:1000E000D1080008D1080008D1080008000000006D
:1000F0000000000000000000000000000000000000
:1001000000000000D1080008D1080008D10800084C
:1001100000000000000000000000000000000000DF
:1001200000000000000000000000000000000000CF
:1001300000000000000000000000000000000000BF
:10014000000000000000000000000000D1080008CE
:10015000000000000000000000000000D1080008BE
:10016000D1080008D10800080000000000000000CD
:10017000000000000000000000000000000000007F
:1001800000000000D108000800000000000000008E
:04019000D10800088A
:1001940010B5054C237833B9044B13B10448AFF3BD
:1001A40000800123237010BD000000200000000027
:1001B4001C09000808B5034B1BB103490348AFF3FE
:1001C400008008BD00000000040000201C09000895
:1001D40010B5002204460121104600F06BF92046B8
:1001E400BDE8104000F098BA10B50122044611464B
:1001F400002000F05FF92046BDE8104000F08CBA02
:10020400012208B51146002000F0D8F8002210465B
:10021400012100F0FFF800221046012100F01EF930
:1002240001220221002000F0C9F800221046022118
:1002340000F0F0F800221046022100F00FF902222B
:100244000521002000F0BAF805221146002000F034
:1002540075F900221046052100F0DCF80122052181
:10026400002000F0FBF802220721002000F0A6F88D
:1002740005220721002000F061F900221046072121
:1002840000F0C8F801220721002000F0E7F801225D
:100294000221002000F00EF9642000F067FA002229
:1002A4001046022100F006F9012000F05FFA012255
:1002B4000221002000F0FEF8642000F057FA00222A
:1002C4001046022100F0F6F8642000F04FFA0122F3
:1002D4000221002000F0EEF8094800F047FA11204E
:1002E400FFF776FF074800F041FA3A20FFF770FF66
:1002F4000520FFF779FFBDE808402920FFF768BF14
:10030400C0D40100F0490200F8B507462A200D4682
:1003140016461C46FFF75CFF380AFFF765FFF8B284
:10032400FFF762FF300AFFF75FFFF0B2FFF75CFFF1
:100334002B20FFF74DFF280AFFF756FFE8B2FFF71F
:1003440053FF200AFFF750FFE0B2BDE8F840FFF783
:100354004BBF70B50E469C1A11463246351AFFF74C
:10036400D3FF2C20FFF734FF6C43049D0026023D8D
:10037400A64200D170BD35F8020F000AFFF734FF22
:100384002878FFF731FF0136F2E70000034A53698A
:1003940043F001035361024B1B681847003C0140C2
:1003A4001C000020034A536943F001035361024BCC
:1003B4001B681847003C01402000002010B50528A8
:1003C4000AD8DFE800F0030A0C0E10120B48046888
:1003D4004B009A402243026010BD0948F7E70948E0
:1003E400F5E70948F3E70948F1E709484B000468D1
:1003F40002FA03F121430160EEE700BF000002406E
:100404000004024000080240000C024000100240B8
:10041400001C0240052809D8DFE800F003090B0D91
:100424000F11084B58688A4002435A607047064BC4
:10043400F8E7064BF6E7064BF4E7064BF2E7064B04
:10044400F0E700BF00000240000402400008024040
:10045400000C024000100240001C024010B50528A8
:100464000AD8DFE800F0030A0C0E10120B48846867
:100474004B009A402243826010BD0948F7E70948BF
:10048400F5E70948F3E70948F1E709484B008468B0
:1004940002FA03F121438160EEE700BF000002404D
:1004A4000004024000080240000C02400010024018
:1004B400001C024012B1012A1AD07047052825D821
:1004C400DFE800F0030C0E101214164843690122F1
:1004D40002FA01F123EA0101416170471248F5E78C
:1004E4001248F3E71248F1E71248EFE71248EDE744
:1004F40005280BD8DFE800F0030B0D0F1113094A90
:100504005069012303FA01F1014351617047064A1E
:10051400F6E7064AF4E7064AF2E7064AF0E7064A2F
:10052400EEE700BF00000240000402400008024061
:10053400000C024000100240001C0240072910B5C4
:1005440023D805280BD8DFE800F0030B0D15171E80
:100554001E4B186A890002FA01F10143196210BDA9
:100564001B4BF6E71B48046A8B0002FA03F1214394
:100574000162F4E71848F6E71848046A8B009A40C9
:1005840022430262EBE71648F7E701F0070105286A
:10059400E5D8DFE800F0030A0C0E10120B48446A99
:1005A4008B009A4022434262D9E70948F7E7094899
:1005B400F5E70948F3E70948F1E709488B00446A7D
:1005C40002FA03F121434162C9E700BF000002407F
:1005D4000004024000080240000C024000100240E7
:1005E400001C02400C4B1A6822F001021A601A68BF
:1005F40022F480321A601A6822F080721A609A68B3
:1006040022F001029A609A6822F002029A601A6843
:1006140042F001021A60704700380240032822D8D1
:10062400DFE800F0020A121A0F4A0123106B03FAE2
:1006340001F10143116370470B4A0123506B03FA24
:1006440001F1014351637047074A0123106C03FA17
:1006540001F1014311647047034A0123506C03FA0A
:1006640001F10143516470470038024082B00138FF
:10067400019B43F001030193019B43F002030193A7
:10068400019B43F004030193019B43F0080301938E
:10069400019B6FF304130193019B6FF345130193C3
:1006A400019B6FF3C7130193019B43F48073019380
:1006B400019B43F400730193019B6FF3CB230193DC
:1006C400032806D8DFE800F002070A0D019A064B5A
:1006D4001A6002B07047019A044BF9E7019A044B7F
:1006E400F6E7019A034BF3E700300140003800407D
:1006F400003C0040003401400138032808D8DFE8FA
:1007040000F002020202034A136843F0400313603C
:10071400704700BF00300140054B9A681106FCD4B5
:10072400D8609A681206FCD4D86880B2704700BFBB
:1007340000300140014B1B68184700BF2400002013
:100744004FF0E02300229A6110B1012807D07047CE
:1007540004221A61044B4FF47A521A6070471A61EA
:10076400014B4FF4FA62F8E72C0000200A4B1B6897
:1007740058434FF0E0230022013858619A611A6906
:1007840042F001021A611A69D203FCD51A6922F0F7
:1007940001021A61704700BF2C00002010B5194BEC
:1007A4001A78022A1AD01B7803F0FF015BB94FF0C4
:1007B400E0231A6922F001021A61596199611A69E8
:1007C40022F002021A61104B1B6898474FF0E02395
:1007D4000E4A1B69C3F30043137010BD0C4C0D4A41
:1007E40023681268013393422360ECD00A490968F4
:1007F4000A449342EAD1044B1B68984700232360C0
:10080400E4E700BF300000203C0000202800002066
:1008140040000020380000203400002007B5FFF716
:10082400E1FE0120FFF78CFF00210846FFF7F6FEEA
:100834000C210320FFF7F2FE0E210320FFF7EEFE4A
:100844000120FFF713FF0120FFF756FFFFF7D8FC45
:100854000022084B0093104632232821FFF779FD2C
:10086400054B0093002232238C216420FFF771FD95
:10087400FEE700BF340900089C1900080D488546AE
:10088400AFF300800C480D490D4A002302E0D45810
:10089400C4500433C4188C42F9D30A4A0A4C0023C6
:1008A40001E013600432A242FBD300F011F8FFF719
:1008B400B5FFFEE7008001200000002000000020BA
:1008C4000C2A00080000002044000020FEE700007D
:1008D40070B50D4D0D4C641BA4100026A64209D121
:1008E4000B4D0C4C00F018F8641BA4100026A64213
:1008F40005D170BD55F8043B98470136EEE755F82D
:10090400043B98470136F2E7042A0008042A000849
:10091400042A0008082A0008F8B500BFF8BC08BC7F
:100924009E467047F8B500BFF8BC08BC9E467047A9
:100934000000DFFFFFFFFFFFFFFFFFFFFFFFDFFF01
:10094400FFFFFFFFFFFFFFFFFFFFBEFFDEFFFEFF16
:10095400BDFFDDFFBDFFBDFF7DFF7DFFBEFFBEFF11
:10096400BEFFDFFFDFFFDEFFDEF7FFEFFFF7FFFF76
:10097400DFFFFFFFFFFFFFFFFFFFDFFFFFFFBFFF03
:10098400FFFF0000FFFFDFFFFFFFFFFFFFFFFFFF91
:10099400FFFFFFFFFFFFDFFFDFFFDFFFBEFF9DFF66
:1009A400BAFE75D530B42C9B8A92699269928A9268
:1009B4000B9BCFABF4CC9AF6BEFFDFFFFFFFDFF754
:1009C400DFF7FFFFFFFFDFFFDFFFFFFFDFFFDFFFDB
:1009D400FFFFFFFF0000FFFFFFFFFFFFFFFFFFFF21
:1009E400FFFFFFFFDFFFDFF7FFFFDFFF3DFF35DD29
:1009F400EC9A6679C3706268A378C488628083883D
:100A040026A167A187A1A891C8898B92D3CC1CFF8A
:100A1400BFFFBEFFFFFFFFFFFFFFBFFFDFFFFFFFC3
:100A2400FFFFFFFFFFF70000DFFFFFFFFFFFFFF700
:100A3400FFFFFFFFFFFFDFFFFFFF9DFF55D54DA326
:100A4400CBAA09A2E488A388A3908398A3A883A827
:100A5400A4B0A7D1CCF2D0FB32FC32FCD0DBABA2E9
:100A64008B9A35DD9EFFDFFF9EFFDFFFDFFFDFFF99
:100A7400BFFFFFFFFFF7FFF70000FFFFFFFFDFF7F8
:100A8400FFFFFFFFBEF7FFFFDFFFFBFEB2C451CC49
:100A9400F4F46EDB67A9C398A3A004B1A2A8A3B021
:100AA400C3B882B062B004C108DA6EFB11FCD3FC97
:100AB40076FD93F4CCAA8EAB9AF6FEFFFFFFDEFF21
:100AC400FFFFBFFFFFFFFFF7FFF70000FFFFFFFF80
:100AD400FFFFFFFFDFFFDFFFDFFF7AEEF3CC96FDC2
:100AE40014FDECD2E4A0429882A0A3B0C3B0C3B872
:100AF400E3C0E3C0C2C0A2C0A2B8C2B8E8D9CBF276
:100B0400AFFB31FCD4FC56FD72DCEB8AF7DDFEFF53
:100B1400DEFFDFFFFFFFFFFFFFFFFFFF0000FFFF20
:100B2400FFFFFFFFFFFFDFFFDEFFDBF675DDD7FD15
:100B340014FDECD2C4A0219883A8C3B8C3B8E3C001
:100B4400C3B8C3C0C3C8C2C8A2C081B881B8A2B068
:100B540045C949EA2DFB10FCB3FC14FD14EDEB92DE
:100B6400D6DDFEFFDEFFFFFFFFFFFFFFBFFF00003C
:100B7400FFFFFFFFFFFFDFFFFFFF1CFF96DDF7FD19
:100B840014FD8EEB45B1219862A8C3B8A3B8A3C0E5
:100B9400A2C0C3C0C3C8A2C882C8A2C861C041B8A9
:100BA40081B882B842B805C9AAE2CFFB71FCF4FC53
:100BB400D3ECEC9A79EEFEFFFFFFFEFFFFFFDFFFB1
:100BC4000000FFFFFFFFDFFFFFFF9DFFD6DD38FEC4
:100BD40075FD10F4A6B9629882A882B082B8A3C049
:100BE400A2C062C0A3C8A3D062D021C882C804D95D
:100BF40045D9A3C862C8A3D042B8C3B829DA6EFBEA
:100C040031FC73FC72EC0C9B7DFFFFFFFFFFFFFFC9
:100C1400FFFF0000FFFFFFFFDFFFDFFF9AF6F7F59E
:100C2400B6FD92F428C2C3A8219861A841B061B06E
:100C340082B882C0A3C882C842C842C8E4D8A7E91F
:100C44008AFA0CFB49FA04D962C862C8C3C0E4C07A
:100C5400C7D94EFBF1FB32FC6EC392C4DFFFDEFF4B
:100C6400FFFFFFF70000DFFFFFFFFFFF5DFFD7E59A
:100C740017FED3F4EBCAC298409841A082B061B089
:100C840061B882B841B841C042C022C0C4D0E8E9CA
:100C9400CCFA4DFBAEFB8DFB89F245E1A3D083C8B2
:100CA40082C0E4C029E22EFBD0FB11F4CBA21BFFCF
:100CB400DEFFFFFFFFFF0000FFFFDFFFDFFF9AF60D
:100CC400B6EDB6FD8EDB25A1819861A0C2B004C14A
:100CD400E3C0E3C8A3C041B842C042C042C0E4D0AC
:100CE40009F2ABFAECFA6DFB4CFB6DFB49F205D94A
:100CF40041C883D0A2C0C3C04AF20DFBD0FB0DBBD8
:100D040014CDDEFFBFFFFFFF0000FFFFDFFFDFFFAB
:100D140018E6D7FDD3FC08C2619881A0C2A824C1FB
:100D240086D966D945D9E4D083C842C042C042C8F6
:100D3400C4D8C8F129FA6AF2EBFA2CF38DFB2CFB28
:100D440028F2A3D882D882D062C0A6D96AE2ECE2A3
:100D54006EDB2CA39EFFDFFFFFFF0000FFFFFFFF02
:100D64007DFFF7E596FDCFE304A982A861A0C3B097
:100D740066D1A7E186E145E104D1A3C841B841C0E9
:100D840062C8E4D8A7F108FA08F249F20CFB6DFB3B
:100D94006DFBEBFA66E9A3E0C3E8C3E004D128E203
:100DA400CBEA6EDB6A9ADBFEDFFFDFFF0000FFFFAA
:100DB400FFFF3CFFB6E534F5CBD282A082B061A838
:100DC40004C186E1A7E966E125D9E4D0A3C081B8CE
:100DD40061B861B882C804D966E9C7F108FA4AFA69
:100DE400ACFAECFAAAFAC7F9E3E8C3F8A3F0A3E073
:100DF40086E18AEAABD2E899D7F5DFFFDEFF00008F
:100E0400FFFFDFFFFBFE55DDF3F429C262A062B0F1
:100E140082B025C9A7E187E166E145E104D1C3C0F9
:100E240061B061B081B861C081C8E3D865F1A7F948
:100E3400C9F92AFA6AFA6AFA28FAE4E882F062F846
:100E4400C3F0C3D886D1C7B9258975EDDFFFDEF7B6
:100E54000000FFFFDFFFDBFE34E592ECE7B982A080
:100E640082A861A845C9A7D9A7E166D925D1E4C05C
:100E7400A2B841A841A861B082B8A2C8E3D865F17C
:100E8400A7F9C8F9E8F949FA49FA28FA24F182F0ED
:100E940082F8A3F004E965D1C7C1658955E5DFFF90
:100EA400DEFF0000FFFFDFFFDBFE34E572F4E7B98D
:100EB400829882A861A845C9A7D9A7D966D925C9A6
:100EC400E4C0A2B041A841A861B082B8A2C803E1BD
:100ED40065F186F9C7F908FA49FA49FA28FA24F1BA
:100EE40082F082F8A3F004E965D9C7C1668955E5A3
:100EF400DFFFBFFF0000FFFFDFFFBAFE14E571F460
:100F0400E7B9829882A861A825D1A7E1A7E186D98B
:100F140025C904C1A3B061A841A861B082B8A2C820
:100F2400E4E045F986F9C7F9E8F949FA49FA28FAF3
:100F340024F182F082F8C3F804F166D9E7C966891E
:100F440055E5DFFFBFFF0000FFFFDFFFBAFE14E53A
:100F540072F4E7B982A062A861B045D1A7E1A7E124
:100F640066D925C9E4C0A3B041A841A861B082B83C
:100F7400A2C8E4E065F986F9C7F9E8F949FA49FA3B
:100F840028FA24F182F082F8C3F804F166D9E8C99A
:100F9400669155E5DFFFBFFF0000DFFFDFFFDBFEEB
:100FA40014E572F4E7B982A082A861B045D1A7E143
:100FB400A7E166D925D1E4C0A3B841A841A861B08E
:100FC40082B8A3C8E4E065F186F9C7F9E8F949FAFB
:100FD40049FA28FA24F182F082F8A3F804F166D9D8
:100FE400E8C9669155E5DFFFBEFF0000FFFFDFFFA4
:100FF400BBFE34E572F4E7B982A082A861B045D1A2
:10100400A7E1A7E166D924D1E4C883B841A841A8DF
:1010140062B082B8A3C804D966F1A6F9C7F9E8F9A1
:1010240049FA49FA28FA24F182F082F8A3F804F183
:1010340066D9E8C9669155E5DFFFBEFF0000DFFF12
:10104400DFFFBBFE14E572F4E7B982A082A861A8B1
:1010540045C9A6D9A7E166D924D1E4C883B841B06B
:1010640041A862B082B8A3C804D966F1A7F9C7F948
:10107400E8F949FA49FA28FA24F182F082F8A3F847
:1010840004F166D9E8C9669155E5BFFFBEFF0000CB
:10109400DFFFDFFFBAFE14E572F4C7B982A082A8AD
:1010A40061A845C9A6D9A6E166D924D1E4C882B805
:1010B40041B041A862B082B8A3C804D986E9A7F9AF
:1010C400C7F9E8F949FA49FA28FA24F182F082F8D2
:1010D400A3F804F166D9E8C9669155E5BFFFBFFFDF
:1010E4000000DFFFDFFFDBFE14E571F4E7B982A047
:1010F40082A882B065D1A6D9A6D986D925D1E4C063
:10110400A2B841A841A862B082B8A3C804D966F1C4
:10111400A7F9C8F9E8F949FA49FA28FA04F162F09A
:1011240082F8C3F804F166D9E7C9669155E5BFFFB3
:10113400BFFF0000DFFFDFFFBBFE14E571F4E8B979
:1011440082A082A861A845C9A6D9A6D986D945C9CD
:1011540003C1C3B861A861A861A882B882C0E4D8F9
:1011640046F187F9C7F9E8F949FA49FA28FA25F165
:1011740083F0A3F8C3F824F166D9E8C9669155E56C
:10118400BFFFBFFF0000DFFFDFFFBAFE14E572F40C
:10119400E8B982A062A862B045D1C7E1A7E186D9C7
:1011A40045C903C1C3B061A061A081A882B8A3C826
:1011B400E4E046F987F9A7F9E8F949FA49FA28FA7F
:1011C40024F182F0A3F8C3F024E966D9E7C1668963
:1011D40055E5BFFFBFFF0000FFFFDFFFBAFE14E5C8
:1011E40071F4C7B1829862A841A825D1A7D9A6D91C
:1011F40086D124C9E3B8A2B061A041A061A862B8B5
:1012040082C8C3D825F967F9A7F9E8F949FA49FA70
:1012140008FA04F162E882F0A3F004E965D9C7C1D1
:10122400668955E5BFFFBFFF0000FFFFDFFFBAFE81
:1012340014E571ECC7B1829882A841A845C9A6D922
:10124400A6D986D924C9E3C0A2B861A841A861B0CF
:1012540062B882C8C3E025F166F9C7F9E8F949FA2A
:1012640049FA28FA04E962E882F0A3F004E965D1B6
:10127400C7C1668955E5DFFFBFFF0000DFFFDFFF61
:10128400BAFE14E551ECE7B9829882A082A886C917
:10129400C7D9A6D986D925D1E3C8A2C021B021B027
:1012A40041B862C082C8E4E045F186F9C7F9E8F9BB
:1012B40049FA49FA28FA24F182F082F0A3F004E909
:1012C40065D1C7C1668955E5DFFFBFFF0000DFFFB9
:1012D400DFFFBAFEF4DC71EC08BAA2A06198819831
:1012E40045B986C986D165D905D9C4D083D001C092
:1012F40001C041C062C062C8E3D845E986F1C7F9BC
:10130400E8F949FA49FA28FA24F182E8A3F0A3F0AB
:1013140004E965D1E7C1668955E5DFFFBFFF000039
:10132400FFFFDFFFBAFEF3DC71F408C282A020984D
:10133400419824B165C986D1A6E166E946E9E5E8A4
:10134400A4E0A4D8A4D8C3D8C3D824E185F1A6F1D5
:10135400C7F9E8F949FA49FA28FA24F182E8A3F02E
:10136400C3F024E965D1E7C1868955E5DFFFBFFFF6
:101374000000FFFFFFFFDBFEF3DC51F4E8C962A8C5
:1013840041B021A804C185C965D145D104D1C3D8D0
:1013940042D001C821D082D8A3D8C3D803E164E9DC
:1013A40085F1C7F9E8F949FA49FA48FA24F182F0D3
:1013B400A3F0C3E804E1A6D9C7C1458176E5DFFF00
:1013C400BEFF0000FFFFDFFFDBF6F4DC51F4E8D1E1
:1013D40082B862C0C3D066E9C7E9C6E185E145E1E8
:1013E40005E1A4E083E0A4E0C3D8A2D061C8A2D000
:1013F40044E9A6F9C7F9E8F949FA49FA28FA24F1BF
:1014040082F0A3F8C3E804E1A6D9C7C1458176E513
:10141400DFFFBEFF0000FFFFFFFFDBF613DD51F42B
:10142400E8C9A2B082C8A3E045F9A6F9A6F9A6F1D5
:1014340066F145E9E4E083D083C882B862B062B85B
:10144400C3C845E9A7F9C7F9E8F929FA49FA28FA16
:1014540024F162F083F8C3F024E1A6D9C7C1658101
:1014640096E5DFFFBFFF0000FFFFFFFFFBF6F3DCA5
:1014740051F4E8C9A2B082C862E004F986F9A6F979
:1014840086F165E904E1A3D021B001A841A062A8D6
:10149400A2B004D166F187F9A8F9C8F929FA29FAA2
:1014A40008FA04F962F883F8C3F024E1A6D9C7C1A5
:1014B400458196E5DFFFDFFF0000FFFFDFFFDAF67F
:1014C400F3D451F4E8C9A2B0A2C8C3E065F9C6F9DF
:1014D400A6F185E924D9E3C862B820A041A082A07E
:1014E40082A883B0C4C846E988F9A8F9C8F929FADA
:1014F40029FA08FA04F962F863F8C3F004E186D91A
:10150400C7C1458196E5DFFFDFFF0000FFFFFFFF56
:10151400DAF6F3DC31F408CAA2B0A2C0C3D065E99C
:10152400A6E985D964D124C903B9A2A861A041A0C0
:1015340062A062A862B8A4D026F187F9A8F9E8F9F4
:1015440029FA49FA08FA05F162F863F8C4F004E1EB
:1015540086D9C7C1458176E5DFFFBFFF0000FFFFE5
:10156400DFFFDBFED3DC31F408CAA2B061B081A88E
:1015740044C185C985C964C144B903B1C2A84198AD
:1015840021A041B062C083D0E4E066F186F9C7F9D6
:10159400E8F949FA49FA28FA05F162F883F8C3F040
:1015A40004E186D9C7C1458176E5DFFFBFFF0000AE
:1015B400DFFFDFFFBBFEB3DC31F408CA82B061A8F1
:1015C400419044A9A6C1A6C185C124B1E3A88198CC
:1015D400009841A8A3C8E4E0E4E004E965F986F1D1
:1015E400C7F9E8F949FA49FA28FA25F163F083F8CA
:1015F400C3E804E186D9C7C1458176E5DFFFBFFFB3
:101604000000BFFFDFFFBBF692D431F409CAA2A8E1
:1016140082A8419045B1C7C1A7C986C145B904B1E3
:10162400A3A8A3B0A3B8C3D0C3D8A3D8E3E864F1F4
:1016340085F1C7F108FA49FA29FA48FA25F162E86E
:1016440063F0E4E8E4D886D9E7C1247996E5DFFFBE
:10165400BEF70000DFFFDFFFDBFED3DC31ECE8C1C7
:10166400C3B061A0629846B1A7C9A7C966C925C11C
:1016740004B9C3B021A021A841B041B861C8C3D8FE
:1016840065E9A6F1A7F9E8F929FA49FA28FA25F152
:1016940062E883F0A3E045E1A6D9E7B96581B6E540
:1016A400DEFF9DF70000FFFFDFFFDBFED3DC51F41C
:1016B400C8C1E3A881A861A045B9A7C9A7D166C9D3
:1016C40004C1C4B882B062A862A882A882A882B801
:1016D400E3D065E9A7F9A7F9E8F949FA49FA28FA3C
:1016E40025F183F0A3F0E3E844E185D1C7B144795F
:1016F400B5E5FEFFFFFF0000BEFFDFFFBAF6B2D480
:1017040072FCC7C1A2A081A821A004B986C9A6C938
:1017140065C904C1C3B862A821982198619882A0C0
:10172400A2A8E4C846E987F9A8F9E8F929FA49FA28
:1017340008FA24F183F0A3F0E3E803D986D1E7C1E2
:10174400247975E5DEFF9DF70000DFFFDFFFDBFE98
:10175400D3E451FC08CAA2A861A841A024B985C158
:10176400A6C185C124B9E4B882B021984198829079
:10177400A298A2A8E4C826E967F987F9C8F909FA82
:1017840029FAE8F945F1A3F0A3F0E3E824E186D9C6
:10179400A6C1458975EDBEFFDEFF0000DBF6F7E567
:1017A40096E5EFCBCBD2A7C944C9C3B8C3B865C1CA
:1017B40086C185C165B904B9C3B882A862A882A0EC
:1017C400C3A0C3A0C2B0E4C826E967F9A7F9C8F961
:1017D40008FA49FA08FA86F9E4F8A3F804F186F15C
:1017E400C7E928DA28B28EC330BCF3C4000059EE2E
:1017F400D3C471CC6AAAA39862A861B820B045C9C1
:10180400A7D1A6C966C145C104B9A3B042A800A026
:1018140021A061A082A882B0A3C825E987F9A7F90D
:10182400E8F908F269FA28FA08FA25F9A3F8A3E80E
:10183400C3E0E4D866D187B1669166790D9B000058
:1018440039F6F3D492DC49B282A8A3C061C0A2C81D
:1018540066D9A7D9A7D966D145D104C9C3C062B88E
:1018640021B841B882B8A3C0A2C0C3D025E986F983
:10187400A7F9E8F108F249FA48FA28FA25F962F0DA
:10188400A3F0C3E804E925D966C186A1C8992DB39C
:10189400000038FEF3DCB2EC29C2A3C0C4D8C2E015
:1018A400A2D886E9A7E9C7F1A7F166E945E904E901
:1018B400E4E0A3D8C3D8C3D8E3E004E104E145F1EC
:1018C40066F1A7F9C7F908FA49FA69FA08FA25F995
:1018D40083E882E8C3F024E966E986D908CAE8A95E
:1018E4000CBB0000F7F551D4EFDBC7B9A3C804E97A
:1018F400E3E8C2E024E145E145E925E904E9E4E857
:10190400C3E8A2E861E061E061D882D882D882D8D5
:10191400C3E0E4E025E945E965E186E1A7E186E97C
:1019240025F1A3F0C3F0E3F024F145E965D908D229
:1019340008B22CCB000000000000000000000000F2
:101944000000000000000000000000000000000093
:101954000000000000000000000000000000000083
:101964000000000000000000000000000000000073
:101974000000000000000000000000000000000063
:101984000000000000000000000000000000000053
:1019940000000000000000000000FFFFFFFFFFFF49
:1019A400FFFFDFFFFFFFFFFFFFFFFFFFFFFFFFFF63
:1019B400FFFFFFFFFFFFFFFFFFFFFFFFFFFFFFFF33
:1019C400BFF7BFF7DFFFFFFFFFFFFFFFFFFFFFFFD3
:1019D400FFFFFFFFFFFFFFFFFFFFFFFFFFFFFFFF13
:1019E400FFFFFFFFFFFFFFFFFFFF0000FFFFFFFF01
:1019F400FFFFBEF7FFFFFFFFDFFFFFFFFFFFFFFF5C
:101A0400DEF7DFFFFFFFFFFFFBDEF7BD55ADD39C25
:101A1400D39CD7BDFCDE5DEF3DE71DE77DEFFFFF07
:101A2400FFFFFFFFFFFFFFFFFFFFDFFFFFFFFFFFE2
:101A3400FFFFFFFFFFFFFFFFFFFFFFFF0000FFFFB0
:101A4400FFFFFFFFFFFFFFFFDFFFFFFFFFFFFFFFC2
:101A5400FFFFFFFF9EF7D7B5518C8E736E6B6E6BD5
:101A64006E6BCF73929455A5B7B559C61CE71CE7A6
:101A7400BBD61CE7BEF7BFF7DFFFFFFFFFFFFFFF8B
:101A8400FFFFFFFFFFFFFFFFFFFFFFFFFFFF000060
:101A9400FFFFFFFFFFFFFFFFDFFFFFFFFFFFBEF7BB
:101AA400FFFFBFF7F7BDAE734D6BCF7B1084F07BA8
:101AB400518C9294B394B3949294928CB394F49C76
:101AC40018C61CE73CE7BAD61CE7DFFFFFFFDFFFC1
:101AD400FFFFFFFFFFFFFFFFFFFFFFFFFFFFFFFF12
:101AE4000000FFFFDFFFFFFFDFFFDFFFFFFFDFFF80
:101AF400FFFF3DE751846E6BB39476AD318431843E
:101B0400D394D39C149D149DF49C35A556AD15A572
:101B1400D39C728CF39C59CE5DEFFCDEBAD65DEF9C
:101B2400FFFFFFFFFFFFFFFFFFFFFFFFFFFFFFFFC1
:101B3400FFFF0000FFFFDFFFFFFFFFFFFFFFFFFFCF
:101B4400FFFF39C68E73728CBBD61CE776ADF07B73
:101B5400728CB394D39C149D15A515A515A535A514
:101B640035A555A5F49CB294929475ADBBD63CE7CB
:101B7400FBDEFBDEBEF7FFFFFFFFFFFFFFFFFFFF04
:101B8400FFFFFFFF0000FFFFFFFFFFFFDFFFFFFF7F
:101B9400FFFF7ACE8E73F8BD9EF79EF7F8BDD394FF
:101BA400728C728CF49C15A535A535A556AD77AD10
:101BB40076AD56AD56AD35A5D39C728C518C9294AE
:101BC400B7B5DBDE3CE73CE79EF7FFFFFFFFFFFF17
:101BD400FFFFFFFFFFFF0000FFFFFFFFFFFFFFFF0F
:101BE400FFFFFBDECF7B59CEDFFF7EEFDBDE18BECF
:101BF4003184728CD49CB39415A535A535A535A52F
:101C040056AD77AD56AD35A515A5B7B5F8BD96B5A6
:101C1400D39C929476ADBAD6DBDE5DEFDFFFFFFF97
:101C2400FFFFFFFFFFFFFFFF0000FFFFFFFFDFFFDE
:101C3400FFFF9EF7EF7B39C6FFFF9EEF5EE79BD663
:101C4400D49C728C938CB394B394D49C159DF49CC3
:101C5400159D56A535A535A556AD5ACE9EF79EF7CA
:101C64005DEF59CE14A5F39C14A5DBDE1CE75DEFF4
:101C7400FFFFFFFFFFFFFFFFFFFF0000FFFFFFFF6E
:101C8400FFFFFFFF55AD96B59EF79EF77EEF9BCE07
:101C9400F49C938C728C939476ADB7B5B7B597AD2D
:101CA40077AD35A5F59CF49C35A519C69EEF5DEF7F
:101CB4009EF77DEF3DE79AD655AD14A575AD1CE7AB
:101CC400DBDE9EF7FFFFFFFFFFFFFFFF0000FFFFCC
:101CD400FFFFDFFF5DE7518C5DEFBFF79EEF1CDF79
:101CE400D8B55184B394D49435A519BE59C65AC6EF
:101CF40019BE19C697AD35A5159D159DD8BDDFF73D
:101D04005DEF7EEF7EEF9EF75EEF18C655ADF39C58
:101D140079CEFBDE1CE7FFFFDFFFFFFFFFFF0000C4
:101D2400DFFFFFFFDFFFB7B596B5DFFF5DEF5DEFC8
:101D3400F8BDD394928C9394D494D8B539C65ACE22
:101D44007ACE5AC639C656ADF49C15A5159D35A54F
:101D54001CDFBFF77EEF7EEF7EEF5DEF1CE796B5ED
:101D640035A535A5DBDEFCDEBFF7DFFFFFFFFFFF98
:101D74000000FFFFFFFFDFFF728C1CE7BFF7BFF718
:101D8400BBD656AD938CF49C938CF49C19BE39C687
:101D94005AC619C659C619BE76ADF49CF49C15A54D
:101DA400F49C39C69FF77EF77EF75EEF5DEF9EF7F2
:101DB40018C635A5D39CF8BD3CE71CE7FFFFDFFF41
:101DC400FFFF0000FFFFFFFF1CE7F49C9EF77EEF80
:101DD4003DE719C6928C728CB394938C35A5D8B513
:101DE40039C618BE39C619BEB7B535A5B394728CB9
:101DF400B394728C35A5BBD67EF79EF77EEF7EEF4B
:101E04007EEFFBDEB6B596B5B6B5DBDE1CE7FFFFAD
:101E1400FFFFFFFF0000BFF7FFFF7ACE39C6BFF711
:101E24003DE759CE96B5528C159D159D76AD59C694
:101E34009BCEFCDEDCD6DCD67ACED8B5D494F07B4F
:101E4400F07B118411849294F8BD5DEF7EEF7EEFF8
:101E54007EEF3DE77EEF79CE38C6F8BD9AD61CE713
:101E6400BFF7FFFFFFFF0000FFFFFFFFDBD6DBDE56
:101E74007EEF9AD69ACEF49C159D39C619C65AC6D9
:101E8400DCD63DE71DE75EE73DE75DE73DE797AD5F
:101E94003184318431845184B394F8C51CE75DEFF7
:101EA4009EF79EF73DEF5DEFBBD618C638C61CE71C
:101EB400DBDEDFFFDFFFFFFF0000FFFFFFFF1CDFB4
:101EC4001CDF3DE7BBD659C635A5D8BD5ACE5ACE80
:101ED4009BD63DE75EE75EEF7EEF7EEF3DE71DDFDD
:101EE4005AC6528451843184728CD49CF8BDDBDE92
:101EF4005DEF7EEF5DEF5DEF5DE7FCDE9AD67ACEB7
:101F0400DBDEFBDEBEF7FFFFFFFF0000FFFFFFFF8E
:101F14001CE71CE73DE7BBD659C635A5F9BD7BCE0A
:101F24007ACEBCD65EE77EEF7EEF9EEF7EEF3DE796
:101F34001DE75ACE528452843184728CD49CF8BDED
:101F4400DBDE5DEF9DEF7DEF7DEF5DEFFCDE9AD68E
:101F54007ACEDBDEFBDEBEF7FFFFFFFF0000FFFFF4
:101F6400FFFF1CE71CE75DE7DBD659CE35A5F9BDBD
:101F74007BCE7BCEBCD65EE77EEF7EEF9FEF7EEF1F
:101F84003DE71DE75ACE528452843184728CD49C2E
:101F9400F8BDDBDE7EEF9EEF7DEF7DEF5DEF1CDFB6
:101FA400BBD69ACEDBDEFBDEBEF7FFFFFFFF0000F1
:101FB400FFFFFFFF1CE71CE75DE7DBD659CE56ADFC
:101FC400F9BD7BCE7ACEBCD65EE77EEF7EEF7EEFA8
:101FD4007EEF5DE71DE75ACE528452843184728CC1
:101FE400D49CF8BDDBDE7EEF9EEF7DEF7DEF5DEFF1
:101FF4001CDFBBD69ACEDBDEFBDEBEF7FFFFFFFFA6
:102004000000FFFFFFFF1CE71CE75DE7DBD659CEAE
:1020140056AD19BE7BCE7BCEDCD65EE77EEF7EEF7F
:102024009EEF7EEF5DE73DE77ACE528452843184A1
:10203400728CD49CF8BDFCDE7EEF9EEF7DEF7DEFCD
:102044005DEF1CDFBBD69ACEDBDEFBDEBEF7FFFF07
:10205400FFFF0000FFFFFFFF1CE71CE75DE7DBD687
:1020640059CE56AD19BE7BCE7BCEDCD65EE77EEF75
:102074007EEF9EEF7EEF5DE71DE75ACE52845284D9
:102084003184728CD49CF8BDDBDE7EEF9EEF7DEF55
:102094007DEF5DEFFCDEBBD69ACEDBDEFBDEBEF76A
:1020A400FFFFFFFF0000FFFFFFFF1CE71CE75DE7EA
:1020B400DBD659CE35A5F9BD7BCE7ACEBBD65EE74D
:1020C4007EEF7EEF7EEF7EEF5DE71DE75ACE528412
:1020D40052843184728CD49CF8BDDBDE7EEF9EEF9B
:1020E4007DEF7DEF5DEF1CDFBBD69ACEDBDEFBDE42
:1020F400BEF7FFFFFFFF0000FFFFFFFF1CE71CE729
:102104005DE7DBD659C635A5F9BD7BCE7BCEBCD603
:102114005EE77EEF7EEF7EEF7EEF3DE71DE75ACE72
:10212400528452843184728CB394F8BDDBDE5DEF4B
:102134009EEF7DEF7DEF5DEF1CDFBBD69ACEDBDE3D
:10214400FBDEBEF7FFFFFFFF0000FFFFFFFF3CE7E2
:102154001CE73DE7BBD67ACE56ADF8BD9BCE9BCEF1
:102164009BCE7EEF5EEF9FEF9EEF5EE75EE71DDFA7
:102174005AC6528452843184728CB394F8BDDBDE27
:102184005DEF9EF77DEF7DEF5DEFFCDEBBD65ACEB3
:10219400DBDEDBDEBFF7FFFFFFFF0000FFFFFFFF1B
:1021A400FCDE1CE75DEFBBD639C615A519BE7BCE98
:1021B4007ACEBBD65EE71DE77EEF7EEF5EE75DE796
:1021C4001DDF5AC652845284117C728CD49CF8BD93
:1021D400DBDE5DEF9EF77DEF7DEF5DEFFCDEBBD6D2
:1021E4007ACEDCDEFCDEDFF7FFFFFFFF0000FFFF3F
:1021F400FFFF1CE71CE73DE7BBD659CE56ADF8BD43
:102204005AC69BCEDCD63EE77FEFDFF73DE77EEF95
:102214005DE71CDF39C6318411841184938CB39437
:10222400F8BDDBDE5DEF9EF77DEF5DEF5DEFFCDE7D
:102234009AD659C6BBD6DBDEBFF7FFFFFFFF00000F
:10224400FFFFFFFF1CE7FCDE1CE7DBD65ACE35A5FB
:10225400F8BD7BCE39C69BCE5EEF1DDF1DDF7EEF62
:102264007EEF3DE71CDF39C6728C3184F07B11842C
:10227400B394D8BDBBD65DE79EEF7DEF5DEF5DEF18
:102284001CDFBBD67ACEFCDEDBDEBFF7FFFFFFFF31
:102294000000FFFFFFFF1CDFFCDE3DE7BBD639C6B5
:1022A400D49C97AD5AC65ACE9BCEFCDE5EE79FF710
:1022B4007EEF9BCE5AC65AC697B531843184318499
:1022C4005284B394D8BDDBD65DEF9EEF7DEF5DEF16
:1022D4005DEF9AD639C639C6FCDEFCDEBFF7FFFFD8
:1022E400FFFF0000FFFFFFFFFCDE1CE71CE77ACEC8
:1022F40019C635A5F8BD9BD6DCD63DE77EEFBFF702
:102304001DE7F8BDFCDE1DE75EE739C63184F07BCE
:10231400117C528CB394F8BDDBDE5DEF9EF77DEF4C
:102324007DEF5DEFBBD6F8BDF8BDDCDEDBDEBEF7CE
:10233400FFFFFFFF0000FFFFFFFF1CE7FCDE1CE7C1
:10234400BBD659CE35A519BE19BE3184318497AD9B
:10235400159D528C56A576AD39C61CDF59C6938C93
:102364005184318431849394D8BDBBD63DE79EEF2C
:102374007DEF7DEF7DEFFCDEF8BDD7BDDBDEFBDE60
:102384009EF7FFFFFFFF0000FFFFFFFF1CDFDBDE08
:102394005DEF5DEF59CE31844E6B6F6BAB522D63A5
:1023A400117CD49435A576ADF8BD39C6FCDEBBD618
:1023B40018BE7ACE7ACE19C6528C97B59ACE1CE73F
:1023C4007DEF7DEF7EEF7DEF18BEF49C14A59AD6C9
:1023D400FBDEBFF7FFFFFFFF0000FFFFFFFF1CE76F
:1023E400DBDE5DEFDBD69BD656AD4E6B2E63EC5A2F
:1023F4004E63F07B528CD494F49C15A576AD56AD07
:1024040097B5F8BDD7B5F49CB394B394D8BD9AD618
:102414001CE77DEF9EF77EEF7DEF18C6D49C14A5D4
:10242400BBD6FBDE9EF7FFFFFFFF0000FFFFFFFFB1
:102434001CE7DBD65DEF1CE7FCDEF8BD56AD56A508
:10244400F49CD494F49CF49C35A576ADB7B597ADC3
:1024540019BE39C6D494117CCF731184728CB7B56C
:10246400BBD65DEF9EF75DEF7DEF9EF7F8BDD39C85
:1024740014A59BD6FBDE9EF7FFFFFFFF0000FFFFC6
:10248400FFFF1CE7BBD63DE73DE7FCDE39C656AD92
:10249400D8B5D8BDF9BD19BEF8BD19BE5AC6BBD64C
:1024A400DCD63DE75AC6117C318431843184D49C16
:1024B400D8BDBBD65DEF9EF77DEF5DEF7DEFB7B581
:1024C400D39C15A59BD6DBDEBEF7FFFFFFFF000004
:1024D400FFFFFFFF1CE7DBDE3DE73DE7DCDE7ACEF6
:1024E400F8BD19C6D8BDB8B5F8BDF9BD7ACEDCD6ED
:1024F4007EEF1DE71CDF39C631845284D0733184EA
:10250400728CB7B59AD63DE79EF77DEF7EEF7EEFEE
:10251400B7B5D39C35A59AD6DBDEBEF7FFFFFFFF28
:102524000000FFFFFFFF1CE7FBDE3DE73DE71CE784
:10253400BBD6B8B5F9BDB8B5D8B57ACEBBD6FCDE36
:102544003EE7DCDEDCDEFCDED8BDF07B3184D0731C
:102554001184939419C63DE77EF77DEF5DEF7DEF1F
:102564007DEFB7B5D49C35A59AD6BBD69EF7FFFFB1
:10257400FFFF0000FFFFFFFFFCDEDBDE3DE71CE7A3
:102584003DE75ACED8B519BEB7B5B7B57ACEDCD6C5
:10259400FCDE3DE73DE7DCD6DCD6D8BD6E6B6E6B6A
:1025A400F07BB394D8BD3DE7BFFF9FF77DEF7DEF90
:1025B4007DEF5DEFB7B5D39C15A59AD6BBD69EF734
:1025C400FFFFFFFF0000FFFFFFFFFCDEBBD63DE780
:1025D4001CE73DE756ADF49C97AD97ADD8BDBBD68F
:1025E400DCD6BBD6BBD6BBD6DCD6BBD6B7B5938CB4
:1025F40076AD39C67ACE7ACE5EEF7EF75DEF7DEFAB
:102604009EF79EF77DEF97B5B39C14A59AD6DBDEB3
:102614009EF7FFFFFFFF0000FFFFFFFF1CDFBBD69D
:102624005DE73DE75DE7B394F49C97B597ADB7B527
:102634007ACEBBD6BBD6FCDE9BCE7ACEF8BD18BE16
:102644009ACEBBD65ACE7ACE7ACE5EEFBFF79EF73D
:102654009EF77DEF7DEF5DEF96B59394F49C9AD64B
:10266400DBDE9EF7FFFFFFFF0000DFFFFFFF1CE73D
:102674009AD63DE75DE71CE735A556A5D8BDF8BD5C
:1026840019BEBBD61DDFFCDE7BCE19C6F8BD39C62C
:1026940019BE15A576AD56A556AD97B59BD61CE7C4
:1026A4005EEF9EF75DEF7EEF9EF796B59294D49C15
:1026B4009BD6BBD6BFF7FFFFFFFF0000FFFFFFFF66
:1026C400DBDEBBD63DE73DE73DE776ADD8B53AC6A0
:1026D4005AC69BCE3DE75EE73EE73DE75EE71DDF7A
:1026E400FCDEF8BD117CF07BD0731184528CB7B53D
:1026F4009AD63DE79EF77DEF5DEF5DEFF8BD9294CE
:10270400F4A49AD6BAD69EF7FFFFFFFF0000FFFF9E
:10271400FFFFFCDEDBDE1CE7FCDE3DE776ADB7B594
:102724003AC65AC69BCE1DE73DE73DE75EEF3EE75E
:102734001DDFFCDE39C6728C3184F07BF07B728C39
:10274400B7B57AD61CE79EF77DEF7DEFBEF7F8BDEF
:10275400528C14A59BD6BBD6BFF7FFFFFFFF00002A
:10276400FFFFFFFF1CDFDBDE1CE73DE75EEF56AD3E
:1027740077AD3AC65AC67ACE1DDF3EE73DE73EE75F
:102784003DE71DE71DDF18BE117CD073D0731184A3
:10279400728CB7B59AD61CE79EF77DEF3DE77DEFC7
:1027A40018C6728C15A57ACE9AD69EF7DFFFFFFF66
:1027B4000000FFFFFFFFFCDEBBD6FCDE1DE7FCDEF6
:1027C40015A597AD3AC639C65ACEFCDE3DE73DE7BE
:1027D4003DE71DE7FDDEDCDEF8BD117CF07BF07B20
:1027E4001184728C97B59AD61CE79EF79EF77DEFFD
:1027F4009EF797B5728C14A59AD6DBDEDFFFFFFF38
:10280400FFFF000038C6BBD69AD69AD61DE7FCDE79
:102814009BD6B8B5D8B5F9BDF8BD5ACEDCD6DCD652
:10282400FCDE1DDF1DDFDCD6BBD6F8BD938CB39474
:10283400728C528CF49CB7B57AD6DBDE3CE75DEF44
:102844001CE73DE7DBDEB7B515A5F8BD18C6FCDE11
:102854001CE77DEF000076AD9AD61CE7BBD6FCDE04
:102864007ACEB8B597B519BEF9BD39C6BBD6FCDE6C
:10287400FCDE1DDF3DE7FCDEDCD6BBD697ADAF73D7
:102884008F6B8E6BAF73D07B9394D7BD9AD61CE7B6
:102894007DEF5DEF5DEF7EF77ACE528CB394D39CDF
:1028A40038C69AD67DEF0000B7B5FCDE5DEF7ACE70
:1028B4001DE7DCDED8BDD8BD19BE3AC69BCE1CDFF1
:1028C4003DE75DE77EEF3DE73DE73DE75DE79ACE17
:1028D400F49CD49CB394939415A576AD7AD6FCDE7F
:1028E4003CE79EF77DEF5DEF5DEFDBD6728C14A5C0
:1028F40056AD9AD69AD63CE70000F49C59C6FFFF21
:102904003DE73DE7DCDEB7B5DCDEFCDEBBD6FCDE56
:102914005DE75DEF7DEF5DEF3DE73DE71DE71DE71B
:10292400FDDE5ACE39C619C619C6F8BD7ACE5DEF9A
:10293400BFF7BEF77DEF9EF77EEF5DEF1CDF59C654
:1029440039C639C6BBD6DBDE7DEF0000D39CB7B5F4
:10295400FCDE18C619C6D8BD15A55ACEBBD67ACE8C
:10296400BBD6FCDEDBDEFBDEDBDEDBD6BBD69BD6FA
:102974005ACE39C656AD15A515A515A5159D35A56F
:10298400F8BD59C6BAD6BAD6BAD69AD6BAD67ACE77
:10299400D7B5D7B5D7B559CE9AD63DE700000000D4
:1029A4000000000000000000000000000000000023
:1029B4000000000000000000000000000000000013
:1029C4000000000000000000000000000000000003
:1029D40000000000000000000000000000000000F3
:1029E40000000000000000000000000000000000E3
:1029F40000000000000000000000000000000000D3
:042A0400B90100080C
:042A0800950100082C
:040000050800088166
:00000001FF
