:020000040800F2
:1000000000800120A50D0008F50D0008F50D000881
:10001000F50D0008F50D0008F50D000800000000C2
:10002000000000000000000000000000F50D0008C6
:10003000F50D000800000000F50D0008B90C0008DF
:1000400000000000F50D0008F50D0008F50D000892
:10005000F50D0008F50D00082D03000851030008F8
:10006000F50D0008F50D0008F50D00080000000072
:100070000000000000000000000000000000000080
:100080000000000000000000F50D00080000000066
:10009000000000000000000000000000F50D000856
:1000A000F50D0008F50D0008F50D0008F50D000828
:1000B000F50D0008F50D0008F50D0008F50D000818
:1000C000F50D0008F50D0008F50D0008FD0B000802
:1000D000F50D0008F50D0008F50D00080000000002
:1000E000F50D0008F50D0008F50D000800000000F2
:1000F0000000000000000000000000000000000000
:1001000000000000F50D0008F50D0008F50D0008D1
:1001100000000000000000000000000000000000DF
:1001200000000000000000000000000000000000CF
:1001300000000000000000000000000000000000BF
:10014000000000000000000000000000F50D0008A5
:10015000000000000000000000000000F50D000895
:10016000F50D0008F50D000800000000000000007B
:10017000000000000000000000000000000000007F
:1001800000000000F50D0008000000000000000065
:04019000F50D000861
:1001940010B5054C237833B9044B13B10448AFF3BD
:1001A40000800123237010BD000000200000000027
:1001B400400E000808B5034B1BB103490348AFF3D5
:1001C400008008BD0000000004000020400E00086C
:1001D40080B582B000AF0346FB71002201210020EC
:1001E40000F028FAFB799BB2184600F0DFFC00BF50
:1001F4000837BD4680BD80B582B000AF0346FB80A2
:1002040001220121002000F015FAFB88184600F0B5
:10021400CDFC00BF0837BD4680BD000080B500AFEF
:1002240001220121002000F0A3F800220121002076
:1002340000F016F900220121002000F083F90122C8
:100244000221002000F094F800220221002000F096
:1002540007F900220221002000F074F9022205218E
:10026400002000F085F805220521002000F0B6FAF0
:1002740000220521002000F0F3F8012205210020CE
:1002840000F060F902220721002000F071F8052235
:100294000721002000F0A2FA00220721002000F02C
:1002A400DFF801220721002000F04CF9012202218D
:1002B400002000F0BFF9642000F0D0FC00220221ED
:1002C400002000F0B7F9012000F0C8FC012202214F
:1002D400002000F0AFF9642000F0C0FC00220221ED
:1002E400002000F0A7F9642000F0B8FC01220221EC
:1002F400002000F09FF90A4800F0B0FC1120FFF73D
:1003040067FF084800F0AAFC3A20FFF761FF0520C8
:10031400FFF771FF2920FFF75BFF00BF80BD00BF1F
:10032400C0D40100F049020080B500AF054B5B6901
:10033400044A43F001035361034B1B68984700BF11
:1003440080BD00BF003C01401C00002080B500AF10
:10035400054B5B69044A43F001035361034B1B687B
:10036400984700BF80BD00BF003C01402000002032
:1003740080B483B000AF0346FB710B46BB711346D8
:100384007B71FB79052B57D801A252F823F000BFEB
:10039400AD030008C5030008DD030008F5030008E9
:1003A4000D04000825040008274B1B687979BA79E5
:1003B400520001FA02F21146234A0B4313603CE057
:1003C400224B1B687979BA79520001FA02F211467C
:1003D4001E4A0B43136030E01D4B1B687979BA79D0
:1003E400520001FA02F21146194A0B43136024E049
:1003F400184B1B687979BA79520001FA02F2114656
:10040400144A0B43136018E0134B1B687979BA79CB
:10041400520001FA02F211460F4A0B4313600CE03A
:100424000E4B1B687979BA79520001FA02F211462F
:100434000A4A0B43136000E000BF00BF0C37BD46FF
:100444005DF8047B704700BF0000024000040240D6
:1004540000080240000C024000100240001C024050
:1004640080B483B000AF0346FB710B46BB711346E7
:100474007B71FB79052B51D801A252F823F000BF00
:100484009D040008B3040008C9040008DF04000840
:10049400F50400080B050008244B5B687979BA79E8
:1004A40001FA02F21146214A0B43536037E0204B14
:1004B4005B687979BA7901FA02F211461C4A0B4356
:1004C40053602CE01B4B5B687979BA7901FA02F22C
:1004D4001146184A0B43536021E0174B5B68797946
:1004E400BA7901FA02F21146134A0B43536016E03B
:1004F400124B5B687979BA7901FA02F211460F4A14
:100504000B4353600BE00E4B5B687979BA7901FABF
:1005140002F211460A4A0B43536000E000BF00BFD9
:100524000C37BD465DF8047B704700BF00000240F5
:100534000004024000080240000C02400010024087
:10054400001C024080B483B000AF0346FB710B462D
:10055400BB7113467B71FB79052B57D801A252F866
:1005640023F000BF8105000899050008B1050008C3
:10057400C9050008E1050008F9050008274B9B6838
:100584007979BA79520001FA02F21146234A0B43EF
:1005940093603CE0224B9B687979BA79520001FA66
:1005A40002F211461E4A0B43936030E01D4B9B68D8
:1005B4007979BA79520001FA02F21146194A0B43C9
:1005C400936024E0184B9B687979BA79520001FA58
:1005D40002F21146144A0B43936018E0134B9B68D4
:1005E4007979BA79520001FA02F211460F4A0B43A3
:1005F40093600CE00E4B9B687979BA79520001FA4A
:1006040002F211460A4A0B43936000E000BF00BFA8
:100614000C37BD465DF8047B704700BF0000024004
:100624000004024000080240000C02400010024096
:10063400001C024080B483B000AF0346FB710B463C
:10064400BB7113467B717B79002B02D0012B5DD0EB
:10065400B2E0FB79052B57D801A252F823F000BF72
:100664007D06000895060008AD060008C5060008CA
:10067400DD060008F5060008524B5B69BA790121D2
:1006840001FA02F2D24311464E4A0B4053613CE058
:100694004D4B5B69BA79012101FA02F2D24311464A
:1006A400494A0B40536130E0484B5B69BA790121F8
:1006B40001FA02F2D2431146444A0B40536124E04A
:1006C400434B5B69BA79012101FA02F2D243114624
:1006D4003F4A0B40536118E03E4B5B69BA790121F4
:1006E40001FA02F2D24311463A4A0B4053610CE03C
:1006F400394B5B69BA79012101FA02F2D2431146FE
:10070400354A0B40536100E000BF55E0FB79052BEF
:1007140050D801A252F823F0350700084B0700080F
:1007240061070008770700088D070008A307000881
:10073400244B5B69BA79012101FA02F21146214A7C
:100744000B43536137E0204B5B69BA79012101FA0D
:1007540002F211461C4A0B4353612CE01B4B5B69AC
:10076400BA79012101FA02F21146184A0B43536186
:1007740021E0174B5B69BA79012101FA02F21146B3
:10078400134A0B43536116E0124B5B69BA7901219A
:1007940001FA02F211460F4A0B4353610BE00E4B70
:1007A4005B69BA79012101FA02F211460A4A0B4344
:1007B400536100E000BF00BF00BF0C37BD465DF8C9
:1007C400047B70470000024000040240000802401D
:1007D400000C024000100240001C024080B483B0B0
:1007E40000AF0346FB710B46BB7113467B71BB79AB
:1007F400072B5BD8FB79052B00F2B68001A252F8D7
:1008040023F000BF21080008390800085108000837
:10081400690800088108000899080008574B1B6AFA
:100824007979BA79920001FA02F21146534A0B43DC
:1008340013629CE0524B1B6A7979BA79920001FAEF
:1008440002F211464E4A0B43136290E04D4B1B6A71
:100854007979BA79920001FA02F21146494A0B43B6
:10086400136284E0484B1B6A7979BA79920001FAE1
:1008740002F21146444A0B43136278E0434B1B6A6D
:100884007979BA79920001FA02F211463F4A0B4390
:1008940013626CE03E4B1B6A7979BA79920001FAD3
:1008A40002F211463A4A0B43136260E0BB7903F04B
:1008B4000703BB71FB79052B58D801A252F823F02A
:1008C400DD080008F50800080D09000825090008DE
:1008D4003D09000855090008284B5B6A7979BA7903
:1008E400920001FA02F21146244A0B4353623EE09D
:1008F400234B5B6A7979BA79920001FA02F21146C4
:100904001F4A0B43536232E01E4B5B6A7979BA7912
:10091400920001FA02F211461A4A0B43536226E08E
:10092400194B5B6A7979BA79920001FA02F211469D
:10093400154A0B4353621AE0144B5B6A7979BA790E
:10094400920001FA02F21146104A0B4353620EE080
:100954000F4B5B6A7979BA79920001FA02F2114677
:100964000B4A0B43536202E000BF00E000BF00BF2C
:100974000C37BD465DF8047B704700BF00000240A1
:100984000004024000080240000C02400010024033
:10099400001C024080B400AF144B1B68134A23F0C0
:1009A40001031360114B1B68104A23F48033136056
:1009B4000E4B1B680D4A23F0807313600B4B9B682E
:1009C4000A4A23F001039360084B9B68074A23F00B
:1009D40002039360054B1B68044A43F00103136050
:1009E40000BFBD465DF8047B704700BF003802407D
:1009F40080B483B000AF03460A46FB711346BB7153
:100A0400FB79032B36D801A252F823F0210A0008FF
:100A1400370A00084D0A0008630A0008194B1B6BCB
:100A2400BA79012101FA02F21146164A0B43136303
:100A340021E0144B5B6BBA79012101FA02F21146F1
:100A4400104A0B43536316E00E4B1B6CBA79012119
:100A540001FA02F211460B4A0B4313640BE0094BF3
:100A64005B6CBA79012101FA02F21146054A0B4383
:100A7400536400E000BF00BF0C37BD465DF8047B43
:100A8400704700BF0038024080B485B000AF034611
:100A9400FB71FB6843F00103FB60FB6843F0020356
:100AA400FB60FB6843F00403FB60FB6843F008034E
:100AB400FB60FB686FF30413FB60FB686FF3451383
:100AC400FB60FB686FF3C713FB60FB6843F4807340
:100AD400FB60FB6843F40073FB60FB686FF3CB239C
:100AE400FB60FB79013B032B1AD801A252F823F0D7
:100AF400050B00080D0B0008150B00081D0B000862
:100B04000B4AFB6813600CE00A4AFB68136008E0B8
:100B1400094AFB68136004E0084AFB68136000E0BC
:100B240000BF00BF1437BD465DF8047B704700BFAB
:100B34000030014000380040003C004000340140D7
:100B440080B483B000AF0346FB71FB79013B032BF8
:100B540022D801A252F823F06D0B0008790B00088B
:100B6400850B0008910B00080F4A136843F04003FB
:100B7400136012E00C4A136843F0400313600CE066
:100B8400094A136843F04003136006E0064A1368F9
:100B940043F04003136000E000BF00BF0C37BD46C4
:100BA4005DF8047B704700BF0030014080B485B01D
:100BB40000AF0346FB800023FB8100BF0D4B9B6805
:100BC400DB0903F00103002BF8D10A4AFB88D36048
:100BD40000BF084B9B68DB0903F00103002BF8D12D
:100BE400044BDB68FB81FB8918461437BD465DF86E
:100BF400047B70470030014080B500AF024B1B6896
:100C0400984700BF80BD00BF2400002080B483B09B
:100C140000AF0346FB710F4B00229A60FB79002B57
:100C240002D0012B08D00FE00A4B04221A600A4BB1
:100C34004FF47A521A6007E0064B00221A60064B02
:100C44004FF4FA621A6000BF00BF0C37BD465DF86E
:100C5400047B704710E000E02800002080B483B0DB
:100C640000AF7860114B1B687A6802FB03F3104AEB
:100C7400013B53600E4B00229A600D4B1B680C4ADB
:100C840043F00103136000BF094B1B6803F4803376
:100C9400002BF9D0064B1B68054A23F001031360AF
:100CA40000BF0C37BD465DF8047B70472800002068
:100CB40010E000E080B500AF244B1B78DBB2022BC0
:100CC4001AD0224B1B78DBB2002B11D1204B1B68AE
:100CD4001F4A23F0010313601D4B00225A601C4B72
:100CE40000229A601A4B1B68194A23F0020313600E
:100CF400184B1B6898471DE0174B1B680133164AB5
:100D04001360154B1A68154B1B689A4203D1114B9B
:100D14001B6898470EE0114B1A68114B1B681A4464
:100D24000D4B1B689A4205D10A4B1B6898470A4B26
:100D340000221A60064B1B681B0CDBB203F0010394
:100D4400DAB2084B1A7000BF80BD00BF3800002023
:100D540010E000E0340000203C0000202C000020C3
:100D6400300000203900002080B500AFFFF712FEEC
:100D74000120FFF74BFF00210020FFF739FE0C2173
:100D84000320FFF735FE0E210320FFF731FE01207B
:100D9400FFF77AFE0120FFF7D3FEFFF73FFAFEE7E5
:100DA4000D488546AFF300800C480D490D4A0023D9
:100DB40002E0D458C4500433C4188C42F9D30A4A0C
:100DC4000A4C002301E013600432A242FBD300F07A
:100DD40011F8FFF7C9FFFEE70080012000000020A2
:100DE40000000020600E00080000002040000020E9
:100DF400FEE7000070B50D4D0D4C641BA4100026D9
:100E0400A64209D10B4D0C4C00F018F8641BA41039
:100E14000026A64205D170BD55F8043B984701361B
:100E2400EEE755F8043B98470136F2E7580E000800
:100E3400580E0008580E00085C0E0008F8B500BFF4
:100E4400F8BC08BC9E467047F8B500BFF8BC08BCA7
:040E54009E467047FF
:040E5800B9010008D4
:040E5C0095010008F4
:0400000508000DA53D
:00000001FF
