:020000040800F2
:1000000000800120950B0008E50B0008E50B0008B7
:10001000E50B0008E50B0008E50B000800000000F8
:10002000000000000000000000000000E50B0008D8
:10003000E50B000800000000E50B0008B90A000805
:1000400000000000E50B0008E50B0008E50B0008C8
:10005000E50B0008E50B0008C1040008E5040008F2
:10006000E50B0008E50B0008E50B000800000000A8
:100070000000000000000000000000000000000080
:100080000000000000000000E50B00080000000078
:10009000000000000000000000000000E50B000868
:1000A000E50B0008E50B0008E50B0008E50B000870
:1000B000E50B0008E50B0008E50B0008E50B000860
:1000C000E50B0008E50B0008E50B0008E50B000850
:1000D000E50B0008E50B0008E50B00080000000038
:1000E000E50B0008E50B0008E50B00080000000028
:1000F0000000000000000000000000000000000000
:1001000000000000E50B0008E50B0008E50B000807
:1001100000000000000000000000000000000000DF
:1001200000000000000000000000000000000000CF
:1001300000000000000000000000000000000000BF
:10014000000000000000000000000000E50B0008B7
:10015000000000000000000000000000E50B0008A7
:10016000E50B0008E50B000800000000000000009F
:10017000000000000000000000000000000000007F
:1001800000000000E50B0008000000000000000077
:04019000E50B000873
:1001940010B5054C237833B9044B13B10448AFF3BD
:1001A40000800123237010BD000000200000000027
:1001B400300C000808B5034B1BB103490348AFF3E7
:1001C400008008BD0000000004000020300C00087E
:1001D40080B485B000AF0346FB800023FB8100237D
:1001E400BB810023FB8112E00023BB8104E0BB89B7
:1001F4009BB201339BB2BB81BB899BB240F66B427D
:100204009342F4D9FB899BB201339BB2FB81FB89F6
:100214009BB2FA889A42E7D800BF00BF1437BD46A4
:100224005DF8047B704780B582B000AF0023FB719A
:1002340014E0FB7901221946002000F063F9FB79F0
:1002440000221946002000F0D5F9FB790022194656
:10025400002000F041FAFB790133FB71FB79052B97
:10026400E7D900BF00BF0837BD4680BD80B582B066
:1002740000AF0346FB7100220021002000F0A4FA25
:10028400FB791B09DBB203F00103DBB21A4602213E
:10029400002000F099FAFB795B09DBB203F001035B
:1002A400DBB21A460321002000F08EFAFB799B0989
:1002B400DBB203F00103DBB21A460421002000F094
:1002C40083FAFB79DB09DBB21A460521002000F032
:1002D4007BFA01220121002000F076FA0220FFF7C8
:1002E40077FF00220121002000F06EFA0220FFF7C0
:1002F4006FFFFB7903F00103DBB21A4602210020F1
:1003040000F062FAFB795B08DBB203F00103DBB2B5
:100314001A460321002000F057FAFB799B08DBB250
:1003240003F00103DBB21A460421002000F04CFA6A
:10033400FB79DB08DBB203F00103DBB21A460521CB
:10034400002000F041FA01220121002000F03CFAD3
:100354000220FFF73DFF00220121002000F034FAC3
:100364000220FFF735FF00BF0837BD4680BD80B5CA
:1003740082B000AF0346FB7101220021002000F08F
:1003840023FAFB791B09DBB203F00103DBB21A4643
:100394000221002000F018FAFB795B09DBB203F0BC
:1003A4000103DBB21A460321002000F00DFAFB79A9
:1003B4009B09DBB203F00103DBB21A4604210020DF
:1003C40000F002FAFB79DB09DBB21A4605210020B2
:1003D40000F0FAF901220121002000F0F5F90220D1
:1003E400FFF7F6FE00220121002000F0EDF90220C3
:1003F400FFF7EEFEFB7903F00103DBB21A4602219C
:10040400002000F0E1F9FB795B08DBB203F00103A3
:10041400DBB21A460321002000F0D6F9FB799B08D1
:10042400DBB203F00103DBB21A460421002000F022
:10043400CBF9FB79DB08DBB203F00103DBB21A462C
:100444000521002000F0C0F901220121002000F064
:10045400BBF90220FFF7BCFE00220121002000F0BE
:10046400B3F90220FFF7B4FE00BF0837BD4680BDD4
:1004740080B500AF3220FFF7ABFE0220FFF7F6FE97
:100484000120FFF7A5FE2820FFF7F0FE0120FFF76B
:100494009FFE0C20FFF7EAFE0120FFF799FE0120E2
:1004A400FFF7E4FE0220FFF793FE0620FFF7DEFECF
:1004B4000220FFF78DFE00BF80BD000080B500AFB5
:1004C400054B5B69044A43F001035361034B1B680A
:1004D400984700BF80BD00BF003C01401C000020C5
:1004E40080B500AF054B5B69044A43F001035361D7
:1004F400034B1B68984700BF80BD00BF003C014010
:100504002000002080B483B000AF0346FB710B468B
:10051400BB7113467B71FB79052B57D801A252F8A6
:1005240023F000BF410500085905000871050008C3
:1005340089050008A1050008B9050008274B1B68B8
:100544007979BA79520001FA02F21146234A0B432F
:1005540013603CE0224B1B687979BA79520001FAA6
:1005640002F211461E4A0B43136030E01D4B1B6818
:100574007979BA79520001FA02F21146194A0B4309
:10058400136024E0184B1B687979BA79520001FA98
:1005940002F21146144A0B43136018E0134B1B6814
:1005A4007979BA79520001FA02F211460F4A0B43E3
:1005B40013600CE00E4B1B687979BA79520001FA8A
:1005C40002F211460A4A0B43136000E000BF00BF69
:1005D4000C37BD465DF8047B704700BF0000024045
:1005E4000004024000080240000C024000100240D7
:1005F400001C024080B483B000AF0346FB710B467D
:10060400BB7113467B71FB79052B51D801A252F8BB
:1006140023F000BF31060008470600085D06000805
:1006240073060008890600089F060008244B5B68CF
:100634007979BA7901FA02F21146214A0B435360DF
:1006440037E0204B5B687979BA7901FA02F21146F6
:100654001C4A0B4353602CE01B4B5B687979BA79D5
:1006640001FA02F21146184A0B43536021E0174B7A
:100674005B687979BA7901FA02F21146134A0B439D
:10068400536016E0124B5B687979BA7901FA02F289
:1006940011460F4A0B4353600BE00E4B5B687979AC
:1006A400BA7901FA02F211460A4A0B43536000E098
:1006B40000BF00BF0C37BD465DF8047B704700BF28
:1006C400000002400004024000080240000C024006
:1006D40000100240001C024080B483B000AF034607
:1006E400FB710B46BB7113467B71FB79052B57D805
:1006F40001A252F823F000BF150700082D070008D7
:10070400450700085D070008750700088D07000805
:10071400274B9B687979BA79520001FA02F21146A3
:10072400234A0B4393603CE0224B9B687979BA7966
:10073400520001FA02F211461E4A0B43936030E064
:100744001D4B9B687979BA79520001FA02F211467D
:10075400194A0B43936024E0184B9B687979BA7962
:10076400520001FA02F21146144A0B43936018E056
:10077400134B9B687979BA79520001FA02F2114657
:100784000F4A0B4393600CE00E4B9B687979BA795E
:10079400520001FA02F211460A4A0B43936000E048
:1007A40000BF00BF0C37BD465DF8047B704700BF37
:1007B400000002400004024000080240000C024015
:1007C40000100240001C024080B483B000AF034616
:1007D400FB710B46BB7113467B717B79002B02D0F6
:1007E400012B5DD0B2E0FB79052B57D801A252F85A
:1007F40023F000BF11080008290800084108000878
:10080400590800087108000889080008524B5B6900
:10081400BA79012101FA02F2D24311464E4A0B4041
:1008240053613CE04D4B5B69BA79012101FA02F254
:10083400D2431146494A0B40536130E0484B5B694F
:10084400BA79012101FA02F2D2431146444A0B401B
:10085400536124E0434B5B69BA79012101FA02F246
:10086400D24311463F4A0B40536118E03E4B5B694B
:10087400BA79012101FA02F2D24311463A4A0B40F5
:1008840053610CE0394B5B69BA79012101FA02F238
:10089400D2431146354A0B40536100E000BF55E096
:1008A400FB79052B50D801A252F823F0C90800089F
:1008B400DF080008F50800080B09000821090008F2
:1008C40037090008244B5B69BA79012101FA02F265
:1008D4001146214A0B43536137E0204B5B69BA79D7
:1008E400012101FA02F211461C4A0B4353612CE028
:1008F4001B4B5B69BA79012101FA02F21146184ACD
:100904000B43536121E0174B5B69BA79012101FA6A
:1009140002F21146134A0B43536116E0124B5B6912
:10092400BA79012101FA02F211460F4A0B435361CD
:100934000BE00E4B5B69BA79012101FA02F2114610
:100944000A4A0B43536100E000BF00BF00BF0C37ED
:10095400BD465DF8047B704700000240000402407D
:1009640000080240000C024000100240001C02403B
:1009740080B400AF144B1B68134A23F001031360C7
:10098400114B1B68104A23F4803313600E4B1B6811
:100994000D4A23F0807313600B4B9B680A4A23F0C3
:1009A40001039360084B9B68074A23F0020393609A
:1009B400054B1B68044A43F00103136000BFBD46A6
:1009C4005DF8047B704700BF0038024080B483B0F8
:1009D40000AF03460A46FB711346BB71FB79032B38
:1009E40036D801A252F823F0FD090008130A0008C2
:1009F400290A00083F0A0008194B1B6BBA79012128
:100A040001FA02F21146164A0B43136321E0144B18
:100A14005B6BBA79012101FA02F21146104A0B43C9
:100A2400536316E00E4B1B6CBA79012101FA02F2F2
:100A340011460B4A0B4313640BE0094B5B6CBA7908
:100A4400012101FA02F21146054A0B43536400E006
:100A540000BF00BF0C37BD465DF8047B704700BF84
:100A64000038024080B483B000AF0346FB710F4BE3
:100A740000229A60FB79002B02D0012B08D00FE0F2
:100A84000A4B04221A600A4B4FF47A521A6007E0A8
:100A9400064B00221A60064B4FF4FA621A6000BF3C
:100AA40000BF0C37BD465DF8047B704710E000E0E2
:100AB4002400002080B500AF244B1B78DBB2022B4E
:100AC4001AD0224B1B78DBB2002B11D1204B1B68B0
:100AD4001F4A23F0010313601D4B00225A601C4B74
:100AE40000229A601A4B1B68194A23F00203136010
:100AF400184B1B6898471DE0174B1B680133164AB7
:100B04001360154B1A68154B1B689A4203D1114B9D
:100B14001B6898470EE0114B1A68114B1B681A4466
:100B24000D4B1B689A4205D10A4B1B6898470A4B28
:100B340000221A60064B1B681B0CDBB203F0010396
:100B4400DAB2084B1A7000BF80BD00BF3400002029
:100B540010E000E0300000203800002028000020D1
:100B64002C0000203500002080B500AFFFF700FF07
:100B74000120FFF777FF00210020FFF727FFFFF791
:100B840052FBFFF775FC4120FFF7F1FBFEE7000085
:100B94000D488546AFF300800C480D490D4A0023EB
:100BA40002E0D458C4500433C4188C42F9D30A4A1E
:100BB4000A4C002301E013600432A242FBD300F08C
:100BC40011F8FFF7D1FFFEE70080012000000020AC
:100BD40000000020500C0008000000203C00002011
:100BE400FEE7000070B50D4D0D4C641BA4100026EB
:100BF400A64209D10B4D0C4C00F018F8641BA4104C
:100C04000026A64205D170BD55F8043B984701362D
:100C1400EEE755F8043B98470136F2E7480C000824
:100C2400480C0008480C00084C0C0008F8B500BF3C
:100C3400F8BC08BC9E467047F8B500BFF8BC08BCB9
:040C44009E46704711
:040C4800B9010008E6
:040C4C009501000806
:0400000508000B954F
:00000001FF
